:020000040800F2
:100000000028002001180008951600089B1600081B
:10001000A1160008A7160008AD1600080000000091
:10002000000000000000000000000000B3160008FF
:10003000BF16000800000000CB160008D716000805
:10004000491800084918000849180008491800080C
:1000500049180008491800084918000849180008FC
:1000600049180008491800084918000849180008EC
:1000700049180008491800084918000849180008DC
:1000800049180008491800084918000849180008CC
:1000900049180008491800084918000849180008BC
:1000A00049180008491800084918000849180008AC
:1000B000E51600084918000800000000491800086B
:1000C000491800080000000000000000491800085E
:1000D000000000004918000849180008000000004E
:1000E00049180008491800084918000800000000D5
:1000F0000000000000000000000000000000000000
:0C01000000000000000000005FF808F1A3
:10010C0010B5054C237833B9044B13B10448AFF345
:10011C0000800123237010BD60010020000000004E
:10012C00782E000808B5034B1BB103490348AFF305
:10013C00008008BD0000000064010020782E00083B
:10014C0080B483B000AF78607B680D4A82FB0312E9
:10015C009210DB17D31A0B4A13607968084B83FB98
:10016C0001239A10CB17D21A13469B0013445B0041
:10017C00CA1A044B5A6000BF0C37BD4680BC70478E
:10018C00676666668C01002080B483B000AF78602F
:10019C007B680D4A82FB03129210DB17D31A0B4AB1
:1001AC0013607968084B83FB01239A10CB17D21A82
:1001BC0013469B0013445B00CA1A044B5A6000BFE1
:1001CC000C37BD4680BC704767666666940100209C
:1001DC0080B400AF024B1B681846BD4680BC70470C
:1001EC000400002080B400AF024B1B681846BD46CB
:1001FC0080BC70470800002080B400AF024B1B6825
:10020C001846BD4680BC70470C00002080B483B0FB
:10021C0000AF78607B68032B19D07B68032B2CDC38
:10022C007B68012B03D07B68022B08D025E0264B82
:10023C001A68264B1B68D31A254A13601EE0224B02
:10024C001A68224B1B68D31A214A136016E0204B04
:10025C001A681D4B1B689A4207DB1D4B1A681B4B17
:10026C001B681344184A136008E0174B1A68184BA4
:10027C001B68D31A154A136000E000BF124B1B68B1
:10028C00002B07DB114B1B68002B03DB104B1B688F
:10029C00002B08DA0C4B05221A600C4B02221A6058
:1002AC000B4B03221A60084B1B680A4A1360074B5E
:1002BC001B68094A1360064B1B68084A136000BF91
:1002CC000C37BD4680BC704704000020080000209D
:1002DC000C0000201000002014000020180000204A
:1002EC0080B500AFA74B1B78022B00F0AD80022B22
:1002FC0000F3B480002B02D0012B0ED0AEE0002016
:10030C0000F062FB0346002B03D09E4B01221A70B7
:10031C00A9E09D4B00221A60A5E0022001F00EFA24
:10032C000346002B7CD0984B1B68002B78D13221D4
:10033C00022001F0E1F9944B01221A60934B1B68E7
:10034C005A1E934B1B689A4227D1924B02221A7069
:10035C00914B00221A70914B1B68914A13608F4B82
:10036C001B68904A1360904B1B68904A13608E4B2D
:10037C001B688F4A13608F4B1B688F4A13608D4B21
:10038C001B688E4A13604FF47A71002001F0B4F9A7
:10039C004FF47A71012001F0AFF97D4B1B680133EA
:1003AC007A4A126893FBF2F102FB01F29B1A784A2B
:1003BC001360774B1B68002B2DD0754B1B681846B0
:1003CC00FFF7BEFE724B1B68032B1AD0032B24DCE9
:1003DC00012B02D0022B0AD01FE0704B1B68784A0D
:1003EC001360774B1B681846FFF7CEFE16E06E4B7A
:1003FC001B68744A1360734B1B681846FFF7C4FEE6
:10040C000CE06C4B1B68704A13606F4B1B681846F2
:10041C00FFF7BAFE02E000BF00E000BF00F05EFC98
:10042C00002000F0EBFA0346002B03D1554B0022C1
:10043C001A7015E0002000F0E1FA0346002B0FD0F3
:10044C00504B02221A700BE0002000F0BDFA03465C
:10045C00002B07D14B4B00221A7003E000BF02E0C7
:10046C0000BF00E000BF594B1B78022B00F0B4809A
:10047C00022B00F31381002B02D0012B6CD00DE169
:10048C00012000F0A1FA0346002B5DD04F4B012256
:10049C001A70022001F052F90346002B58D04C4B35
:1004AC001B68002B54D13221022001F025F9484B56
:1004BC0001221A60364B1B68032B30D0032B49DC0E
:1004CC00012B02D0022B15D044E03D4B1B685A1C6B
:1004DC00404B83FB02135911D317CB1A642101FB38
:1004EC0003F3D31A364A1360354B1B681846FFF7D3
:1004FC004BFE30E0334B1B685A1C364B83FB02130C
:10050C005911D317CB1A642101FB03F3D31A2D4ACB
:10051C0013602C4B1B681846FFF736FE1BE02A4B6A
:10052C001B685A1C2B4B83FB02135911D317CB1A84
:10053C00642101FB03F3D31A234A1360224B1B687B
:10054C001846FFF721FE06E0214B00221A60A8E0B6
:10055C0000BFA6E000BFA4E0012000F04FFA034664
:10056C00002B03D1194B00221A7099E0012000F0E6
:10057C0045FA0346002B00F09380144B02221A70AC
:10058C008EE000BF880100207C01002000000020CC
:10059C009C01002034010020B80100200400002040
:1005AC003801002044010020080000203C010020FC
:1005BC00480100200C000020400100204C010020CC
:1005CC0010000020140000201800002089010020D9
:1005DC00800100201F85EB51012000F0F5F9034646
:1005EC00002B02D1A04B00221A70042001F0A6F8B7
:1005FC000346002B4ED04FF4FA71042001F07CF826
:10060C009A4B1B68032B30D0032B45DC012B02D0FB
:10061C00022B15D040E0964B1B685A1C954B83FB64
:10062C0002135911D317CB1A642101FB03F3D31A0C
:10063C008F4A13608E4B1B681846FFF7A5FD2CE004
:10064C008D4B1B685A1C8B4B83FB02135911D31710
:10065C00CB1A642101FB03F3D31A874A1360864B30
:10066C001B681846FFF790FD17E0844B1B685A1C5B
:10067C00804B83FB02135911D317CB1A642101FB56
:10068C0003F3D31A7D4A13607C4B1B681846FFF7A3
:10069C007BFD02E000BF04E000BF02E000BF00E011
:1006AC0000BF774B1B78022B5FD0022B67DC002B33
:1006BC0002D0012B0ED062E0022000F085F9034637
:1006CC00002B03D06E4B01221A705DE06D4B0022A3
:1006DC001A6059E0022001F031F80346002B2DD0AE
:1006EC00684B1B68002B29D13221022001F004F841
:1006FC00644B01221A605D4B1B68032B16D0032B35
:10070C001EDC012B02D0022B08D019E0584B1B68C1
:10071C005D4A13600120FFF779FD12E0564B1B6810
:10072C005A4A13600220FFF771FD0AE0534B1B6815
:10073C00574A13600320FFF769FD02E000BF00E099
:10074C0000BF022000F05AF90346002B03D14C4B9A
:10075C0000221A7015E0022000F050F90346002B1D
:10076C000FD0474B02221A700BE0022000F02CF93C
:10077C000346002B07D1424B00221A7003E000BF46
:10078C0002E000BF00E000BF424B1B78022B59D0A7
:10079C00022B61DC002B02D0012B3DD05CE003204E
:1007AC0000F012F90346002B32D03A4B01221A709A
:1007BC002E4B1B68032B2DD801A252F823F000BF3F
:1007CC00DD070008E1070008F50700080908000824
:1007DC0000F0CCFB2C4B1B68254A1360244B1B6888
:1007EC001846FFF7D1FC16E0284B1B68224A136011
:1007FC00214B1B681846FFF7C7FC0CE0244B1B6809
:10080C001E4A13601D4B1B681846FFF7BDFC02E027
:10081C0000BF26E000BF24E0032000F0EFF8034601
:10082C00002B03D11B4B00221A7017E0032000F0A1
:10083C00E5F80346002B11D0164B02221A7000F07B
:10084C00E5FA0BE0032000F0BFF80346002B07D1BC
:10085C00104B00221A7003E000BF02E000BF00E062
:10086C0000BF00BF80BD00BF890100209C0100209B
:10087C00100000201F85EB511400002018000020F0
:10088C008A010020840100200400002008000020C0
:10089C000C0000208B01002090B583B000AF00232A
:1008AC00FB717AE0FA79FB794049895C404AD15472
:1008BC00FB79032B33D801A252F823F0D908000896
:1008CC00ED0800080109000815090008FC79012150
:1008DC00384801F09FFA03461A46344B1A551FE06C
:1008EC00FC790221334801F095FA03461A462F4B46
:1008FC001A5515E0FC7904212E4801F08BFA0346B9
:10090C001A462A4B1A550BE0FC794FF480412A48C1
:10091C0001F080FA03461A46244B1A5500E000BF3A
:10092C00FB79224AD25CFB792149CB5C9A4231D1CA
:10093C00FA79FB791D49895C204AD154FB791F4A0D
:10094C00D35C002B1DD1FB791D4AD35C002B08D145
:10095C00FB791C4A32F81320013A91B2194A22F859
:10096C001310FB79174A32F81330002B12D1FB7994
:10097C00134A0121D154FB79124A642122F8131035
:10098C0008E0FB790F4A642122F81310FB790C4A1A
:10099C000021D154FB790133FB71FB79032B81D9F5
:1009AC0000BF00BF0C37BD4690BD00BFA4010020A6
:1009BC00A8010020000C014000080140A00100200B
:1009CC00AC010020B001002080B483B000AF03461E
:1009DC00FB71FB79032B01D9002307E0FB79064A55
:1009EC00D35C002B0CBF01230023DBB218460C3761
:1009FC00BD4680BC704700BFA001002080B483B00E
:100A0C0000AF0346FB71FB79032B01D9002307E0F0
:100A1C00FB79064AD35C012B0CBF01230023DBB20C
:100A2C0018460C37BD4680BC704700BFAC01002097
:100A3C0080B582B000AF786038497A681346DB0025
:100A4C009B1A9B000B441B68DBB21A46802134486E
:100A5C0001F0F7F931497A681346DB009B1A9B00C9
:100A6C000B4404331B68DBB21A464FF480712C48DC
:100A7C0001F0E7F929497A681346DB009B1A9B00C1
:100A8C000B4408331B68DBB21A464FF40071244840
:100A9C0001F0D7F921497A681346DB009B1A9B00B9
:100AAC000B440C331B68DBB21A464FF480611C48B4
:100ABC0001F0C7F919497A681346DB009B1A9B00B1
:100ACC000B4410331B68DBB21A464FF40061144818
:100ADC0001F0B7F911497A681346DB009B1A9B00A9
:100AEC000B4414331B68DBB21A464FF480510C488C
:100AFC0001F0A7F909497A681346DB009B1A9B00A1
:100B0C000B4418331B68DBB21A464FF400510448EF
:100B1C0001F097F900BF0837BD4680BD1C000020CE
:100B2C000008014080B582B000AF786039497A681E
:100B3C001346DB009B1A9B000B441B68DBB21A4666
:100B4C004FF40071344801F07CF932497A6813464D
:100B5C00DB009B1A9B000B4404331B68DBB21A4668
:100B6C004FF480612C4801F06CF92A497A681346DD
:100B7C00DB009B1A9B000B4408331B68DBB21A4644
:100B8C004FF40061244801F05CF922497A6813465D
:100B9C00DB009B1A9B000B440C331B68DBB21A4620
:100BAC004FF480511C4801F04CF91A497A681346ED
:100BBC00DB009B1A9B000B4410331B68DBB21A46FC
:100BCC004FF40051144801F03CF912497A6813466D
:100BDC00DB009B1A9B000B4414331B68DBB21A46D8
:100BEC004FF480410C4801F02CF90A497A681346FD
:100BFC00DB009B1A9B000B4418331B68DBB21A46B4
:100C0C004FF40041044801F01CF900BF0837BD4601
:100C1C0080BD00BF1C000020000C014080B582B0DC
:100C2C0000AF786001221021124801F00AF901226C
:100C3C002021104801F005F90F4A7B6852F8233047
:100C4C001846FFF7F5FE7B68002B03D07B68012B61
:100C5C0006D00BE000221021064801F0F2F805E066
:100C6C0000222021034801F0ECF800BF00BF083738
:100C7C00BD4680BD000C01408C01002080B582B0C7
:100C8C0000AF786001224021124801F0DAF801220D
:100C9C008021104801F0D5F80F4A7B6852F82330B8
:100CAC001846FFF73FFF7B68002B03D07B68012BB6
:100CBC0006D00BE000224021064801F0C2F805E006
:100CCC0000228021034801F0BCF800BF00BF0837A8
:100CDC00BD4680BD000C01409401002080B500AFE2
:100CEC00012202210E4801F0ACF8012204210C482B
:100CFC0001F0A7F801220821094801F0A2F801220D
:100D0C001021074801F09DF801222021044801F030
:100D1C0098F801224021024801F093F800BF80BDF1
:100D2C000008014080B582B000AF7860012202213A
:100D3C00184801F086F801220421164801F081F8C8
:100D4C0001220821134801F07CF87B68022B15D096
:100D5C007B68022B18DC7B68002B03D07B68012B93
:100D6C0006D011E0002202210A4801F06AF80CE0DA
:100D7C0000220421074801F064F806E00022082153
:100D8C00044801F05EF800E000BF00BF0837BD4624
:100D9C0080BD00BF0008014080B582B000AF786014
:100DAC0001221021184801F04CF80122202116488C
:100DBC0001F047F801224021134801F042F87B680A
:100DCC00022B15D07B68022B18DC7B68002B03D020
:100DDC007B68012B06D011E0002210210A4801F09B
:100DEC0030F80CE000222021074801F02AF806E038
:100DFC0000224021044801F024F800E000BF00BFAD
:100E0C000837BD4680BD00BF0008014080B500AF6B
:100E1C00454B00221A6001221021444801F011F8C0
:100E2C0001222021414801F00CF8012240213F48C9
:100E3C0001F007F8012280213C4801F002F83C4BFC
:100E4C0002221A703B4B05221A603B4B02221A609D
:100E5C003A4B03221A6001220221394800F0F1FFBB
:100E6C0001220421364800F0ECFF0022082134480E
:100E7C0000F0E7FF314B1B681846FFF761F9314B67
:100E8C0000221A70304B05221A60304B02221A6075
:100E9C002F4B03221A6000221021294800F0D1FFA9
:100EAC0001222021264800F0CCFF012240212448B9
:100EBC0000F0C7FF244B1B681846FFF765F9254B5C
:100ECC0005221A60244B02221A60244B03221A605A
:100EDC00234B05221A60234B02221A60224B032259
:100EEC001A604FF47A71002000F006FC4FF47A710E
:100EFC00012000F001FC3221022000F0FDFBFA2160
:100F0C00032000F0F9FB4FF4FA71042000F0F4FB1D
:100F1C006421052000F0F0FB4FF47A71062000F0FC
:100F2C00EBFB00BF80BD00BF9C010020000C01400A
:100F3C0034010020380100203C0100204001002039
:100F4C0000080140B80100204401002048010020A5
:100F5C004C0100201000002014000020180000207C
:100F6C0004000020080000200C00002080B500AF19
:100F7C00344B00221A6001221021334800F061FF2B
:100F8C0001222021304800F05CFF012240212E4834
:100F9C0000F057FF012280212B4800F052FF2B4B11
:100FAC0002221A702A4B1B682A4A13602A4B1B68B0
:100FBC002A4A13602A4B1B682A4A13600122022119
:100FCC00294800F03EFF01220421274800F039FF98
:100FDC0000220821244800F034FF224B1B681846DD
:100FEC00FFF7AEF8214B00221A70194B1B68204AF0
:100FFC001360194B1B681F4A1360194B1B681E4A60
:10100C00136000221021184800F01BFF0122202140
:10101C00154800F016FF01224021134800F011FF83
:10102C00134B1B681846FFF7AFF84FF47A7100208A
:10103C0000F062FB4FF47A71012000F05DFB00BF01
:10104C0080BD00BF9C010020000C01403401002039
:10105C000400002038010020080000203C01002082
:10106C000C0000204001002000080140B8010020C5
:10107C0044010020480100204C01002080B500AF45
:10108C00002000F05BFB0346002B7BD04FF47A7101
:10109C00002000F031FB7D4B1B78022B4AD0022B39
:1010AC006ADC002B02D0012B22D065E0784B1B6848
:1010BC00002B12DCFFF78CF80346754A1360734B58
:1010CC0002221A70734B1B68013B724A1360714BFE
:1010DC001B681846FFF734F84FE06D4B1B68013B5B
:1010EC006B4A13606A4B1B681846FFF729F844E0FB
:1010FC00694B1B68002B12DCFFF774F80346664A39
:10110C001360624B00221A70614B1B68013B604AF2
:10111C0013605F4B1B681846FFF712F82DE05E4B0F
:10112C001B68013B5C4A13605B4B1B681846FFF75E
:10113C0007F822E0574B1B68002B12DCFFF75CF81A
:10114C000346544A1360514B01221A70524B1B68D0
:10115C00013B514A1360504B1B681846FEF7F0FFD9
:10116C000BE04C4B1B68013B4A4A1360494B1B6814
:10117C001846FEF7E5FF00E000BF444B1B7818460D
:10118C00FFF7D0FD012000F0D9FA0346002B7BD0ED
:10119C004FF47A71012000F0AFFA404B1B78022B10
:1011AC004AD0022B6ADC002B02D0012B22D065E046
:1011BC003B4B1B68002B12DCFFF70AF80346384A3E
:1011CC001360364B02221A70364B1B68013B354AB2
:1011DC001360344B1B681846FEF7D6FF4FE0304BBC
:1011EC001B68013B2E4A13602D4B1B681846FEF7FB
:1011FC00CBFF44E02C4B1B68002B12DCFEF7F2FFFC
:10120C000346294A1360254B00221A70244B1B6895
:10121C00013B234A1360224B1B681846FEF7B4FFB0
:10122C002DE0214B1B68013B1F4A13601E4B1B68B2
:10123C001846FEF7A9FF22E01A4B1B68002B12DCA4
:10124C00FEF7DAFF0346174A1360144B01221A709B
:10125C00154B1B68013B144A1360134B1B68184653
:10126C00FEF792FF0BE00F4B1B68013B0D4A13601E
:10127C000C4B1B681846FEF787FF00E000BF074BBE
:10128C001B781846FFF788FD00BF80BD3401002095
:10129C0038010020400100203C010020B801002052
:1012AC00440100204C0100204801002080B582B090
:1012BC0000AF7860052000F041FA0346002B2CD0DB
:1012CC004FF4FA71052000F017FA7B68032B1BD042
:1012DC007B68032B23DC7B68012B03D07B68022B00
:1012EC0009D01CE00221104800F0C3FD10210E486B
:1012FC0000F0BFFD14E004210B4800F0BAFD2021E2
:10130C00094800F0B6FD0BE00821074800F0B1FDDC
:10131C004021054800F0ADFD02E000BF00E000BF39
:10132C0000BF0837BD4680BD0008014080B500AF46
:10133C00062000F003FA0346002B08D04FF47A7114
:10134C00062000F0D9F90121174800F092FD174B47
:10135C001B68002B02D1FFF791FE04E0134B1B68B6
:10136C001846FFF7A3FF032000F0E8F90346002B13
:10137C0017D07D21032000F0BFF90D4B1B681846D8
:10138C00FFF74CFC0A4B1B681846FFF777FC084B21
:10139C001B680133002B03F00103B8BF5B42044A06
:1013AC00136000BF80BD00BF000801409C010020FD
:1013BC00BC01002080B500AF00F042FA00F010F83C
:1013CC0000F096F800F048F8044801F097F9FFF7A0
:1013DC001DFDFEF785FFFFF7A9FFFAE7C00100200E
:1013EC0080B590B000AF07F11803282200211846F1
:1013FC0001F034FD3B1D00221A605A609A60DA60DD
:10140C001A610223BB610123BB621023FB62002320
:10141C007B6307F11803184600F044FD0346002BCC
:10142C0001D000F0D5F80F237B600023BB600023B4
:10143C00FB6000233B6100237B613B1D00211846B0
:10144C0000F0B0FF0346002B01D000F0C1F800BF44
:10145C004037BD4680BD000080B586B000AF07F1B7
:10146C00080300221A605A609A60DA603B46002238
:10147C001A605A601D4B4FF080421A601B4B41F6AC
:10148C003F725A60194B00229A60184B0922DA609D
:10149C00164B00221A61154B00229A61134801F079
:1014AC00DDF80346002B01D000F092F84FF4805386
:1014BC00BB6007F1080319460C4801F05BFA0346C0
:1014CC00002B01D000F084F800233B6000237B60EC
:1014DC003B461946054801F033FC0346002B01D06E
:1014EC0000F076F800BF1837BD4680BDC001002063
:1014FC0080B586B000AF07F1080300221A605A606D
:10150C009A60DA602F4B9B692E4A43F00403936177
:10151C002C4B9B6903F004037B607B68294B9B6914
:10152C00284A43F008039361264B9B6903F0080398
:10153C003B603B68002243F6FF71234800F081FCBE
:10154C0000224FF6F061214800F07BFC43F6FF735C
:10155C00BB600123FB6000233B6102237B6107F12D
:10156C0008031946184800F0DBFA0723BB60002378
:10157C00FB6001233B6107F108031946134800F097
:10158C00CFFA4FF6F063BB600123FB6000233B6195
:10159C0002237B6107F1080319460C4800F0C0FADE
:1015AC004FF48043BB600023FB6001233B6107F1D8
:1015BC0008031946044800F0B3FA00BF1837BD46BB
:1015CC0080BD00BF0010024000080140000C01402B
:1015DC0080B400AF72B600BFFEE7000080B485B0E7
:1015EC0000AF154B9B69144A43F001039361124BF6
:1015FC009B6903F00103BB60BB680F4BDB690E4AB0
:10160C0043F08053D3610C4BDB6903F080537B6058
:10161C007B680A4B5B68FB60FB6823F0E063FB6054
:10162C00FB6843F08063FB60044AFB68536000BFB7
:10163C001437BD4680BC70470010024000000140CA
:10164C0080B584B000AF78607B681B68B3F1804FC5
:10165C0013D10C4BDB690B4A43F00103D361094BEB
:10166C00DB6903F00103FB60FB68002200211C20F6
:10167C0000F01FFA1C2000F038FA00BF1037BD46EE
:10168C0080BD00BF0010024080B400AFFEE780B404
:10169C0000AFFEE780B400AFFEE780B400AFFEE71A
:1016AC0080B400AFFEE780B400AF00BFBD4680BC85
:1016BC00704780B400AF00BFBD4680BC704780B49B
:1016CC0000AF00BFBD4680BC704780B500AF00F0D6
:1016DC00FDF800BF80BD000080B500AF024801F0EE
:1016EC0059F800BF80BD00BFC001002080B400AF1E
:1016FC0000BFBD4680BC704780B483B000AF78603B
:10170C0039607B68092B0EDC094B1B683A6892FB2D
:10171C00F3F208497B6841F82320074A7B680021D3
:10172C0042F8231000E000BF0C37BD4680BC704768
:10173C0054010020080200203002002080B483B045
:10174C0000AF78607B68092B01DD002308E0074AB5
:10175C007B6852F82330012B0CBF01230023DBB232
:10176C0018460C37BD4680BC704700BF30020020C5
:10177C0080B483B000AF00237B601CE0124A7B680E
:10178C0052F82330002B13DD0F4A7B6852F82330BC
:10179C005A1E0D497B6841F823200B4A7B6852F88E
:1017AC002330002B04D1094A7B68012142F8231015
:1017BC007B6801337B607B68092BDFDD00BF00BFDA
:1017CC000C37BD4680BC7047080200203002002058
:1017DC0080B582B000AF78607B681B68B3F1804F36
:1017EC0003D1FFF759F8FFF7C3FF00BF0837BD4619
:1017FC0080BD0000FFF77AFF0B480C490C4A002310
:10180C0002E0D458C4500433C4188C42F9D3094AAA
:10181C00094C002301E013600432A242FBD301F017
:10182C00F9FAFFF7C7FD70470000002060010020A7
:10183C00BC2E0008600100205C020020FEE70000C6
:10184C0080B500AF084B1B68074A43F010031360C8
:10185C00032000F023F90F2000F008F8FFF7BEFE7C
:10186C000023184680BD00BF0020024080B582B026
:10187C0000AF7860124B1A68124B1B7819464FF464
:10188C007A73B3FBF1F3B2FBF3F3184600F03BF9B8
:10189C000346002B01D001230EE07B680F2B0AD8E6
:1018AC00002279684FF0FF3000F003F9064A7B689C
:1018BC001360002300E0012318460837BD4680BDA5
:1018CC00500100205C0100205801002080B400AFC2
:1018DC00054B1B781A46054B1B681344034A1360CF
:1018EC0000BFBD4680BC70475C0100205802002040
:1018FC0080B400AF024B1B681846BD4680BC7047D5
:10190C005802002080B485B000AF78607B6803F08B
:10191C000703FB600C4BDB68BB60BA684FF6FF0338
:10192C001340BB60FB681A02BB68134343F0BF63F0
:10193C0043F40033BB60044ABB68D36000BF143768
:10194C00BD4680BC704700BF00ED00E080B400AF26
:10195C00044BDB681B0A03F007031846BD4680BC2A
:10196C00704700BF00ED00E080B483B000AF0346C9
:10197C00FB7197F90730002B0BDBFB7903F01F028F
:10198C00064997F907305B09012000FA02F241F889
:10199C00232000BF0C37BD4680BC704700E100E03F
:1019AC0080B483B000AF03463960FB7197F9073000
:1019BC00002B0ADB3B68DAB20C4997F907301201AD
:1019CC00D2B20B4483F800230AE03B68DAB2084930
:1019DC00FB7903F00F03043B1201D2B20B441A76CD
:1019EC0000BF0C37BD4680BC704700BF00E100E073
:1019FC0000ED00E080B489B000AFF860B9607A60A7
:101A0C00FB6803F00703FB61FB69C3F10703042BBD
:101A1C0028BF0423BB61FB690433062B02D9FB6985
:101A2C00033B00E000237B614FF0FF32BB6902FAFD
:101A3C0003F3DA43BB681A407B699A404FF0FF31DD
:101A4C007B6901FA03F3D9437B680B4013431846B7
:101A5C002437BD4680BC704780B582B000AF78603B
:101A6C007B68013BB3F1807F01D301230FE00A4A6D
:101A7C007B68013B53600F214FF0FF30FFF790FF65
:101A8C00054B00229A60044B07221A60002318466B
:101A9C000837BD4680BD00BF10E000E080B582B0C5
:101AAC0000AF78607868FFF72DFF00BF0837BD46A0
:101ABC0080BD80B586B000AF0346B9607A60FB7319
:101ACC0000237B61FFF742FF78617A68B968786917
:101ADC00FFF790FF024697F90F3011461846FFF7B3
:101AEC005FFF00BF1837BD4680BD80B582B000AF28
:101AFC000346FB7197F907301846FFF735FF00BF17
:101B0C000837BD4680BD80B582B000AF786078687C
:101B1C00FFF7A2FF034618460837BD4680BD0000FC
:101B2C0080B48BB000AF7860396000237B620023F7
:101B3C003B6248E101227B6A02FA03F3FB613B68DA
:101B4C001B68FA691340BB61BA69FB699A4240F0A1
:101B5C0037813B685B68A34A93425ED0A14A9342AB
:101B6C0075D8A14A934258D09F4A93426FD89F4A46
:101B7C00934252D09D4A934269D89D4A93424CD08D
:101B8C009B4A934263D89B4A934246D0994A9342CC
:101B9C005DD8122B2AD8122B59D801A252F823F057
:101BAC00271C0008011C0008131C0008551C000809
:101BBC005B1C00085B1C00085B1C00085B1C00081D
:101BCC005B1C00085B1C00085B1C00085B1C00080D
:101BDC005B1C00085B1C00085B1C00085B1C0008FD
:101BEC005B1C0008091C00081D1C0008824A93425B
:101BFC0013D02CE03B68DB683B6229E03B68DB6878
:101C0C0004333B6224E03B68DB6808333B621FE033
:101C1C003B68DB680C333B621AE03B689B68002B2B
:101C2C0002D104233B6213E03B689B68012B05D176
:101C3C0008233B627B68FA691A6109E008233B625E
:101C4C007B68FA695A6103E000233B6200E000BF45
:101C5C00BB69FF2B01D87B6801E07B6804337B6197
:101C6C00BB69FF2B02D87B6A9B0002E07B6A083BB6
:101C7C009B003B617B691A680F213B6901FA03F3F6
:101C8C00DB431A40396A3B6901FA03F31A437B6957
:101C9C001A603B685B6803F08053002B00F0908067
:101CAC00564B9B69554A43F001039361534B9B6917
:101CBC0003F00103BB60BB68514A7B6A9B0802338B
:101CCC0052F82330FB607B6A03F003039B000F2266
:101CDC0002FA03F3DB43FA681340FB607B68494A62
:101CEC0093420DD07B68484A934207D07B68474AA1
:101CFC00934201D1022304E0032302E0012300E01C
:101D0C0000237A6A02F0030292009340FA681343AC
:101D1C00FB603B497B6A9B080233FA6841F823203D
:101D2C003B685B6803F48013002B06D0384B9A6831
:101D3C003749BB6913438B6006E0354B9A68BB6926
:101D4C00DB43334913408B603B685B6803F400133F
:101D5C00002B06D02E4BDA682D49BB691343CB60A0
:101D6C0006E02B4BDA68BB69DB4329491340CB6097
:101D7C003B685B6803F40033002B06D0244B5A6895
:101D8C002349BB6913434B6006E0214B5A68BB697E
:101D9C00DB431F4913404B603B685B6803F48033A3
:101DAC00002B06D01A4B1A681949BB6913430B60F8
:101DBC0006E0174B1A68BB69DB43154913400B60EF
:101DCC007B6A01337B623B681A687B6A22FA03F3F5
:101DDC00002B7FF4AFAE00BF00BF2C37BD4680BCDC
:101DEC00704700BF000032100000311000002210BC
:101DFC000000211000001210000011100010024011
:101E0C000000014000080140000C0140001001409E
:101E1C000004014080B485B000AF78600B467B8035
:101E2C007B689A687B881340002B02D00123FB73DC
:101E3C0001E00023FB73FB7B18461437BD4680BCC6
:101E4C00704780B483B000AF78600B467B8013463C
:101E5C007B707B78002B03D07A887B681A6103E057
:101E6C007B881A047B681A6100BF0C37BD4680BCA6
:101E7C00704780B485B000AF78600B467B807B6880
:101E8C00DB68FB607A88FB6813401A04FB68D94353
:101E9C007B880B401A437B681A6100BF1437BD4620
:101EAC0080BC704780B586B000AF78607B68002B33
:101EBC0001D101236CE27B681B6803F00103002B4A
:101ECC0000F08780924B5B6803F00C03042B0CD062
:101EDC008F4B5B6803F00C03082B12D18C4B5B68A7
:101EEC0003F48033B3F5803F0BD1894B1B6803F4AB
:101EFC000033002B6CD07B685B68002B68D101230E
:101F0C0046E27B685B68B3F5803F06D1804B1B686B
:101F1C007F4A43F4803313602EE07B685B68002BB0
:101F2C000CD17B4B1B687A4A23F480331360784BBB
:101F3C001B68774A23F4802313601DE07B685B6881
:101F4C00B3F5A02F0CD1724B1B68714A43F480235C
:101F5C0013606F4B1B686E4A43F4803313600BE0C5
:101F6C006B4B1B686A4A23F480331360684B1B6805
:101F7C00674A23F4802313607B685B68002B13D0C3
:101F8C00FFF7B6FC386108E0FFF7B2FC02463B698C
:101F9C00D31A642B01D90323FAE15D4B1B6803F4BC
:101FAC000033002BF0D014E0FFF7A2FC386108E0FE
:101FBC00FFF79EFC02463B69D31A642B01D903231D
:101FCC00E6E1534B1B6803F40033002BF0D100E027
:101FDC0000BF7B681B6803F00203002B63D04C4BE3
:101FEC005B6803F00C03002B0BD0494B5B6803F0D0
:101FFC000C03082B1CD1464B5B6803F48033002B7D
:10200C0016D1434B1B6803F00203002B05D07B68F1
:10201C001B69012B01D00123BAE13D4B1B6823F056
:10202C00F8027B685B69DB00394913430B603AE0CB
:10203C007B681B69002B20D0364B01221A60FFF7FE
:10204C0057FC386108E0FFF753FC02463B69D31A92
:10205C00022B01D903239BE12D4B1B6803F00203D8
:10206C00002BF0D02A4B1B6823F0F8027B685B69CD
:10207C00DB00274913430B6015E0264B00221A6046
:10208C00FFF736FC386108E0FFF732FC02463B698B
:10209C00D31A022B01D903237AE11D4B1B6803F0E1
:1020AC000203002BF0D17B681B6803F00803002BA4
:1020BC003AD07B689B69002B19D0174B01221A6010
:1020CC00FFF716FC386108E0FFF712FC02463B698B
:1020DC00D31A022B01D903235AE10D4B5B6A03F08F
:1020EC000203002BF0D0012000F09AFA1CE00A4BFE
:1020FC0000221A60FFF7FCFB38610FE0FFF7F8FBDA
:10210C0002463B69D31A022B08D9032340E100BFD6
:10211C000010024000004242800442429E4B5B6A27
:10212C0003F00203002BE9D17B681B6803F0040366
:10213C00002B00F0A6800023FB75974BDB6903F0A6
:10214C008053002B0DD1944BDB69934A43F08053A1
:10215C00D361914BDB6903F08053BB60BB680123F7
:10216C00FB758E4B1B6803F48073002B18D18B4BC3
:10217C001B688A4A43F480731360FFF7B9FB38611C
:10218C0008E0FFF7B5FB02463B69D31A642B01D973
:10219C000323FDE0814B1B6803F48073002BF0D00C
:1021AC007B68DB68012B06D17B4B1B6A7A4A43F0B8
:1021BC00010313622DE07B68DB68002B0CD1764B9E
:1021CC001B6A754A23F001031362734B1B6A724A34
:1021DC0023F0040313621CE07B68DB68052B0CD135
:1021EC006D4B1B6A6C4A43F0040313626A4B1B6A07
:1021FC00694A43F0010313620BE0674B1B6A664AA2
:10220C0023F001031362644B1B6A634A23F004033B
:10221C0013627B68DB68002B15D0FFF769FB386114
:10222C000AE0FFF765FB02463B69D31A41F288329C
:10223C00934201D90323ABE0574B1B6A03F0020313
:10224C00002BEED014E0FFF753FB38610AE0FFF7E8
:10225C004FFB02463B69D31A41F28832934201D9B3
:10226C00032395E04C4B1B6A03F00203002BEED1C9
:10227C00FB7D012B05D1484BDB69474A23F080538A
:10228C00D3617B68DB69002B00F08180424B5B687B
:10229C0003F00C03082B61D07B68DB69022B46D161
:1022AC003F4B00221A60FFF723FB386108E0FFF771
:1022BC001FFB02463B69D31A022B01D9032367E0AB
:1022CC00354B1B6803F00073002BF0D17B681B6A45
:1022DC00B3F5803F08D1304B5B6823F400327B6848
:1022EC009B682D4913434B602B4B5B6823F4741292
:1022FC007B68196A7B685B6A0B43274913434B6005
:10230C00274B01221A60FFF7F3FA386108E0FFF758
:10231C00EFFA02463B69D31A022B01D9032337E0AB
:10232C001D4B1B6803F00073002BF0D02FE01C4BEF
:10233C0000221A60FFF7DCFA386108E0FFF7D8FAE0
:10234C0002463B69D31A022B01D9032320E0124B1E
:10235C001B6803F00073002BF0D118E07B68DB697D
:10236C00012B01D1012313E00B4B5B68FB60FB6875
:10237C0003F480327B681B6A9A4206D1FB6803F433
:10238C0070127B685B6A9A4201D0012300E0002343
:10239C0018461837BD4680BD001002400070004042
:1023AC006000424280B584B000AF786039607B68D1
:1023BC00002B01D10123D0E06A4B1B6803F007030B
:1023CC003A689A4210D9674B1B6823F0070265499B
:1023DC003B6813430B60634B1B6803F007033A68BD
:1023EC009A4201D00123B8E07B681B6803F002031A
:1023FC00002B20D07B681B6803F00403002B05D056
:10240C00594B5B68584A43F4E06353607B681B6824
:10241C0003F00803002B05D0534B5B68524A43F47E
:10242C0060535360504B5B6823F0F0027B689B68F1
:10243C004D4913434B607B681B6803F00103002B71
:10244C0040D07B685B68012B07D1474B1B6803F4BA
:10245C000033002B15D101237FE07B685B68022BD6
:10246C0007D1414B1B6803F00073002B09D10123EA
:10247C0073E03D4B1B6803F00203002B01D10123D9
:10248C006BE0394B5B6823F003027B685B68364971
:10249C0013434B60FFF72CFAF8600AE0FFF728FAB9
:1024AC000246FB68D31A41F28832934201D90323C6
:1024BC0053E02D4B5B6803F00C027B685B689B0060
:1024CC009A42EBD1274B1B6803F007033A689A42F8
:1024DC0010D2244B1B6823F0070222493B6813439C
:1024EC000B60204B1B6803F007033A689A4201D03B
:1024FC00012332E07B681B6803F00403002B08D037
:10250C00194B5B6823F4E0627B68DB681649134364
:10251C004B607B681B6803F00803002B09D0124B3F
:10252C005B6823F460527B681B69DB000E49134324
:10253C004B6000F021F802460B4B5B681B0903F063
:10254C000F030A49CB5C22FA03F3094A1360094BC7
:10255C001B681846FFF78AF9002318461037BD464A
:10256C0080BD00BF0020024000100240902E0008E9
:10257C00500100205801002080B487B000AF002328
:10258C00FB600023BB6000237B6100237B60002386
:10259C003B611E4B5B68FB60FB6803F00C03042B78
:1025AC0002D0082B03D027E0194B3B6127E0FB68D6
:1025BC009B0C03F00F03174AD35C7B60FB6803F49E
:1025CC008033002B10D0114B5B685B0C03F00103C4
:1025DC00114AD35CBB607B680D4A02FB03F2BB68FB
:1025EC00B2FBF3F37B6104E07B680C4A02FB03F360
:1025FC007B617B693B6102E0054B3B6100BF3B6942
:10260C0018461C37BD4680BC704700BF0010024006
:10261C0000127A00A02E0008B02E000800093D0020
:10262C0080B485B000AF78600A4B1B680A4AA2FBE5
:10263C0003235B0A7A6802FB03F3FB6000BFFB68B1
:10264C005A1EFA60002BF9D100BF00BF1437BD46EB
:10265C0080BC704750010020D34D621080B582B011
:10266C0000AF78607B68002B01D1012341E07B68CF
:10267C0093F83D30DBB2002B06D17B68002283F847
:10268C003C207868FEF7DCFF7B68022283F83D2053
:10269C007B681A687B6804331946104600F056FABA
:1026AC007B68012283F846207B68012283F83E2058
:1026BC007B68012283F83F207B68012283F840204D
:1026CC007B68012283F841207B68012283F8422039
:1026DC007B68012283F843207B68012283F8442025
:1026EC007B68012283F845207B68012283F83D201A
:1026FC00002318460837BD4680BD000080B485B065
:10270C0000AF78607B6893F83D30DBB2012B01D0D1
:10271C00012335E07B68022283F83D207B681B682F
:10272C00DA687B681B6842F00102DA607B681B6820
:10273C00164A934209D07B681B68B3F1804F04D0D2
:10274C007B681B68124A934211D17B681B689B689B
:10275C0003F00703FB60FB68062B10D07B681B683B
:10276C001A687B681B6842F001021A6007E07B68FC
:10277C001B681A687B681B6842F001021A60002310
:10278C0018461437BD4680BC704700BF002C014072
:10279C000004004080B584B000AF78607B681B6893
:1027AC00DB68FB607B681B681B69BB60BB6803F064
:1027BC000203002B20D0FB6803F00203002B1BD07C
:1027CC007B681B686FF002021A617B6801221A7722
:1027DC007B681B689B6903F00303002B03D07868AC
:1027EC0000F098F905E0786800F08BF9786800F053
:1027FC009AF97B6800221A77BB6803F00403002B5C
:10280C0020D0FB6803F00403002B1BD07B681B68F3
:10281C006FF004021A617B6802221A777B681B68CE
:10282C009B6903F44073002B03D0786800F072F9B5
:10283C0005E0786800F065F9786800F074F97B6859
:10284C0000221A77BB6803F00803002B20D0FB682A
:10285C0003F00803002B1BD07B681B686FF0080289
:10286C001A617B6804221A777B681B68DB6903F0AA
:10287C000303002B03D0786800F04CF905E078686E
:10288C0000F03FF9786800F04EF97B6800221A7767
:10289C00BB6803F01003002B20D0FB6803F010037F
:1028AC00002B1BD07B681B686FF010021A617B68D1
:1028BC0008221A777B681B68DB6903F44073002BD2
:1028CC0003D0786800F026F905E0786800F019F973
:1028DC00786800F028F97B6800221A77BB6803F04F
:1028EC000103002B0CD0FB6803F00103002B07D075
:1028FC007B681B686FF001021A617868FEF768FF4D
:10290C00BB6803F08003002B0CD0FB6803F0800342
:10291C00002B07D07B681B686FF080021A61786807
:10292C0000F06FFABB6803F04003002B0CD0FB687F
:10293C0003F04003002B07D07B681B686FF040024C
:10294C001A61786800F0F8F8BB6803F02003002BDC
:10295C000CD0FB6803F02003002B07D07B681B68AE
:10296C006FF020021A61786800F042FA00BF10374D
:10297C00BD4680BD80B584B000AF7860396000235F
:10298C00FB737B6893F83C30012B01D10223B4E03C
:10299C007B68012283F83C207B68022283F83D206F
:1029AC007B681B689B68BB60BB6823F07703BB60CC
:1029BC00BB6823F47F43BB607B681B68BA689A6072
:1029CC003B681B68B3F5005F3ED0B3F5005F00F2C7
:1029DC008780B3F5805F00F08680B3F5805F7FD889
:1029EC00702B1AD0702B7BD8602B50D0602B77D8E3
:1029FC00502B3CD0502B73D8402B58D0402B6FD839
:102A0C00302B64D0302B6BD8202B60D0202B67D888
:102A1C00002B5CD0102B5AD062E07B6818683B68A6
:102A2C0099683B685A683B68DB6800F06AF97B6818
:102A3C001B689B68BB60BB6843F07703BB607B681B
:102A4C001B68BA689A604FE07B6818683B689968A5
:102A5C003B685A683B68DB6800F053F97B681B687D
:102A6C009A687B681B6842F480429A603CE07B6801
:102A7C0018683B6859683B68DB681A4600F0CAF86E
:102A8C007B681B685021184600F021F92CE07B680C
:102A9C0018683B6859683B68DB681A4600F0E8F830
:102AAC007B681B686021184600F011F91CE07B68FC
:102ABC0018683B6859683B68DB681A4600F0AAF84E
:102ACC007B681B684021184600F001F90CE07B681C
:102ADC001A683B681B681946104600F0F8F803E0CA
:102AEC000123FB7300E000BF7B68012283F83D20CB
:102AFC007B68002283F83C20FB7B18461037BD46D0
:102B0C0080BD80B483B000AF786000BF0C37BD4689
:102B1C0080BC704780B483B000AF786000BF0C37C6
:102B2C00BD4680BC704780B483B000AF786000BFF6
:102B3C000C37BD4680BC704780B483B000AF786062
:102B4C0000BF0C37BD4680BC7047000080B485B018
:102B5C0000AF786039607B681B68FB607B682B4A30
:102B6C00934207D07B68B3F1804F03D07B68284A2F
:102B7C00934208D1FB6823F07003FB603B685B68F1
:102B8C00FA681343FB607B68204A934207D07B684A
:102B9C00B3F1804F03D07B681D4A934208D1FB6888
:102BAC0023F44073FB603B68DB68FA681343FB60FB
:102BBC00FB6823F080023B685B691343FB607B6816
:102BCC00FA681A603B689A687B68DA623B681A6834
:102BDC007B689A627B680D4A934203D13B681A6901
:102BEC007B681A637B6801225A617B681B6903F05E
:102BFC000103002B05D07B681B6923F001027B6865
:102C0C001A6100BF1437BD4680BC7047002C0140D0
:102C1C000004004080B487B000AFF860B9607A60FF
:102C2C00FB681B6A7B61FB681B6A23F00102FB6873
:102C3C001A62FB689B693B613B6923F0F0033B61C3
:102C4C007B681B013A6913433B617B6923F00A03E0
:102C5C007B617A69BB6813437B61FB683A699A6153
:102C6C00FB687A691A6200BF1C37BD4680BC70478E
:102C7C0080B487B000AFF860B9607A60FB681B6AFB
:102C8C007B61FB681B6A23F01002FB681A62FB680D
:102C9C009B693B613B6923F470433B617B681B037D
:102CAC003A6913433B617B6923F0A0037B61BB68EA
:102CBC001B017A6913437B61FB683A699A61FB6873
:102CCC007A691A6200BF1C37BD4680BC704780B45D
:102CDC0085B000AF786039607B689B68FB60FB68EF
:102CEC0023F07003FB603A68FB68134343F007035F
:102CFC00FB607B68FA689A6000BF1437BD4680BCE5
:102D0C00704780B487B000AFF860B9607A603B6000
:102D1C00FB689B687B617B6923F47F437B613B6829
:102D2C001A027B681A43BB6813437A6913437B61AD
:102D3C00FB687A699A6000BF1C37BD4680BC70473F
:102D4C0080B485B000AF786039607B6893F83C3014
:102D5C00012B01D1022341E07B68012283F83C2046
:102D6C007B68022283F83D207B681B685B68FB60F4
:102D7C007B681B689B68BB60FB6823F07003FB607F
:102D8C003B681B68FA681343FB607B681B68FA6836
:102D9C005A607B681B68144A934209D07B681B6895
:102DAC00B3F1804F04D07B681B68104A93420CD15E
:102DBC00BB6823F08003BB603B685B68BA68134355
:102DCC00BB607B681B68BA689A607B68012283F8D9
:102DDC003D207B68002283F83C20002318461437E2
:102DEC00BD4680BC704700BF002C01400004004071
:102DFC0080B483B000AF786000BF0C37BD4680BC98
:102E0C00704780B483B000AF786000BF0C37BD460C
:102E1C0080BC704770B500260C4D0D4C641BA41083
:102E2C00A64209D100F022F800260A4D0A4C641B78
:102E3C00A410A64205D170BD55F8043B9847013645
:102E4C00EEE755F8043B98470136F2E7B42E00083C
:102E5C00B42E0008B42E0008B82E00080346024415
:102E6C00934200D1704703F8011BF9E7F8B500BF96
:102E7C00F8BC08BC9E467047F8B500BFF8BC08BC4F
:042E8C009E467047A7
:102E9000000000000000000001020304060708090A
:102EA00002030405060708090A0B0C0D0E0F10108B
:042EB000010200001B
:042EB40031010008E0
:042EB8000D01000800
:102EBC0004000000050000000200000003000000F8
:102ECC0005000000020000000300000000000000EC
:102EDC0000000000000000000000000000000000E6
:102EEC0000000000010000000100000000000000D4
:102EFC0000000000010000000100000001000000C3
:102F0C0001000000000000000000000001000000B3
:102F1C0000000000000000000100000000000000A4
:102F2C000000000000000000000000000000000095
:102F3C000100000001000000000000000100000082
:102F4C000000000000000000010000000100000073
:102F5C000000000000000000000000000100000064
:102F6C000000000000000000010000000000000054
:102F7C000000000000000000010000000000000044
:102F8C000000000000000000000000000000000035
:102F9C000000000000000000000000000100000024
:102FAC000100000001000000010000000000000012
:102FBC000000000000000000000000000000000005
:102FCC0000000000000000000000000000000000F5
:102FDC0000000000000000000100000000000000E4
:102FEC0000000000020000000500000002000000CC
:102FFC0003000000050000000200000003000000B8
:10300C0000127A000A00000010000000010000000D
:0400000508001801D6
:00000001FF
