:020000040800F2
:1000000000280020B9180008891600088F1600087B
:10001000951600089B160008A116000800000000B5
:10002000000000000000000000000000A71600080B
:10003000B316000800000000BF160008CB16000829
:100040000119000801190008011900080119000828
:100050000119000801190008011900080119000818
:100060000119000801190008011900080119000808
:1000700001190008011900080119000801190008F8
:1000800001190008011900080119000801190008E8
:1000900001190008011900080119000801190008D8
:1000A00001190008011900080119000801190008C8
:1000B000D916000801190008000000000119000805
:1000C00001190008000000000000000001190008EC
:1000D00000000000011900080119000800000000DC
:1000E00001190008011900080119000800000000AA
:1000F0000000000000000000000000000000000000
:0C01000000000000000000005FF808F1A3
:10010C0010B5054C237833B9044B13B10448AFF345
:10011C0000800123237010BD60010020000000004E
:10012C00302F000808B5034B1BB103490348AFF34C
:10013C00008008BD0000000064010020302F000882
:10014C0080B483B000AF78607B680D4A82FB0312E9
:10015C009210DB17D31A0B4A13607968084B83FB98
:10016C0001239A10CB17D21A13469B0013445B0041
:10017C00CA1A044B5A6000BF0C37BD4680BC70478E
:10018C00676666668C01002080B483B000AF78602F
:10019C007B680D4A82FB03129210DB17D31A0B4AB1
:1001AC0013607968084B83FB01239A10CB17D21A82
:1001BC0013469B0013445B00CA1A044B5A6000BFE1
:1001CC000C37BD4680BC704767666666940100209C
:1001DC0080B400AF024B1B681846BD4680BC70470C
:1001EC000400002080B400AF024B1B681846BD46CB
:1001FC0080BC70470800002080B400AF024B1B6825
:10020C001846BD4680BC70470C00002080B483B0FB
:10021C0000AF78607B68032B19D07B68032B2CDC38
:10022C007B68012B03D07B68022B08D025E0264B82
:10023C001A68264B1B68D31A254A13601EE0224B02
:10024C001A68224B1B68D31A214A136016E0204B04
:10025C001A681D4B1B689A4207DB1D4B1A681B4B17
:10026C001B681344184A136008E0174B1A68184BA4
:10027C001B68D31A154A136000E000BF124B1B68B1
:10028C00002B07DB114B1B68002B03DB104B1B688F
:10029C00002B08DA0C4B05221A600C4B02221A6058
:1002AC000B4B03221A60084B1B680A4A1360074B5E
:1002BC001B68094A1360064B1B68084A136000BF91
:1002CC000C37BD4680BC704704000020080000209D
:1002DC000C0000201000002014000020180000204A
:1002EC0080B582B000AFA34B1B78022B00F0A68028
:1002FC00022B00F3AD80002B02D0012B0ED0A7E017
:10030C00002000F06FFB0346002B03D0994B012219
:10031C001A70A2E0984B00221A609EE0012001F0B6
:10032C004DFA0346002B75D0934B1B68002B71D1F3
:10033C00012001F019FA904B01221A608F4B1B68B7
:10034C005A1E8F4B1B689A4220D18E4B02221A7078
:10035C008D4B00221A708D4B1B688D4A13608B4B92
:10036C001B688C4A13608C4B1B688C4A13608A4B3D
:10037C001B688B4A13608B4B1B688B4A1360894B31
:10038C001B688A4A1360002001F0EEF97C4B1B6855
:10039C0001337A4A126893FBF2F102FB01F29B1AC9
:1003AC00774A1360764B1B68002B2ED0744B1B685E
:1003BC0001331846FFF7C4FE714B1B68032B1AD090
:1003CC00032B24DC012B02D0022B0AD01FE06F4B35
:1003DC001B68774A1360764B1B681846FFF7D4FEF0
:1003EC0016E06D4B1B68734A1360724B1B68184602
:1003FC00FFF7CAFE0CE06B4B1B686F4A13606E4B29
:10040C001B681846FFF7C0FE02E000BF00E000BF0B
:10041C0000F072FC002000F0FFFA0346002B03D121
:10042C00544B00221A7015E0002000F0F5FA034638
:10043C00002B0FD04F4B02221A700BE0002000F063
:10044C00D1FA0346002B07D14A4B00221A7003E065
:10045C0000BF02E000BF00E000BF584B1B78022B2E
:10046C0000F0B280022B00F30F81002B02D0012B85
:10047C006BD009E1012000F0B5FA0346002B5CD0EB
:10048C004E4B01221A70012001F098F90346002B03
:10049C0057D04B4B1B68002B53D1012001F064F952
:1004AC00474B01221A60364B1B68032B30D0032BB1
:1004BC0049DC012B02D0022B15D044E03C4B1B68CD
:1004CC005A1C404B83FB02135911D317CB1A6421CE
:1004DC0001FB03F3D31A364A1360354B1B681846DD
:1004EC00FFF752FE30E0334B1B685A1C354B83FB35
:1004FC0002135911D317CB1A642101FB03F3D31A3E
:10050C002C4A13602B4B1B681846FFF73DFE1BE073
:10051C00294B1B685A1C2B4B83FB02135911D31705
:10052C00CB1A642101FB03F3D31A234A1360224B29
:10053C001B681846FFF728FE06E0214B00221A60C4
:10054C00A5E000BFA3E000BFA1E0012000F064FA29
:10055C000346002B03D1194B00221A7096E00120A0
:10056C0000F05AFA0346002B00F09080134B022245
:10057C001A708BE0880100207C0100200000002014
:10058C009C01002034010020B80100200400002050
:10059C003801002044010020080000203C0100200C
:1005AC00480100200C000020400100204C010020DC
:1005BC0010000020140000201800002089010020E9
:1005CC00800100201F85EB51012000F00BFA03463F
:1005DC00002B02D1AB4B00221A70022001F0EEF876
:1005EC000346002B4CD0022001F0BEF8A64B1B6832
:1005FC00032B30D0032B45DC012B02D0022B15D062
:10060C0040E0A24B1B685A1CA14B83FB02135911EF
:10061C00D317CB1A642101FB03F3D31A9B4A136043
:10062C009A4B1B681846FFF7AFFD2CE0994B1B68E3
:10063C005A1C974B83FB02135911D317CB1A642105
:10064C0001FB03F3D31A934A1360924B1B681846B1
:10065C00FFF79AFD17E0904B1B685A1C8C4B83FBE1
:10066C0002135911D317CB1A642101FB03F3D31ACC
:10067C00894A1360884B1B681846FFF785FD02E01A
:10068C0000BF04E000BF02E000BF00E000BF834BEE
:10069C001B78022B5ED0022B66DC002B02D0012BC8
:1006AC000ED061E0022000F09DF90346002B03D030
:1006BC007A4B01221A705CE0794B00221A6058E0E8
:1006CC00012001F07BF80346002B2CD0744B1B68E7
:1006DC00002B28D1012001F047F8714B01221A6040
:1006EC00694B1B68032B16D0032B1EDC012B02D08D
:1006FC00022B08D019E0654B1B686A4A1360012075
:10070C00FFF784FD12E0634B1B68674A13600220FD
:10071C00FFF77CFD0AE0604B1B68644A1360032002
:10072C00FFF774FD02E000BF00E000BF022000F004
:10073C0073F90346002B03D1584B00221A7015E0B5
:10074C00022000F069F90346002B0FD0534B022214
:10075C001A700BE0022000F045F90346002B07D17C
:10076C004E4B00221A7003E000BF02E000BF00E015
:10077C0000BF4F4B1B78022B6ED0022B76DC002B6C
:10078C0002D0012B46D071E0032000F02BF9034678
:10079C00002B6DD0464B01221A703B4B1B68032B70
:1007AC002AD801A252F823F0C5070008C90700088F
:1007BC00DD070008F107000800F0C6FB394B1B6889
:1007CC00324A1360314B1B681846FFF7DDFC14E00E
:1007DC00354B1B682F4A13602E4B1B681846FFF7CE
:1007EC00D3FC0AE0314B1B682B4A13602A4B1B6865
:1007FC001846FFF7C9FC00E000BF00237B6005E052
:10080C00786800F0B1FF7B6801337B607B68052B57
:10081C00F6DD2DE0032000F0FFF80346002B03D19A
:10082C00234B00221A7025E0032000F0F5F8034654
:10083C00002B1FD01E4B02221A7000F0F5FA002379
:10084C003B6005E0386800F08FFF3B6801333B608C
:10085C003B68052BF6DD0DE0032000F0C3F80346E2
:10086C00002B09D1124B00221A7005E000BF04E0E6
:10087C0000BF02E000BF00E000BF00BF0837BD466C
:10088C0080BD00BF890100209C01002010000020C9
:10089C001F85EB5114000020180000208A01002055
:1008AC008401002004000020080000200C0000201F
:1008BC008B01002090B583B000AF0023FB717AE070
:1008CC00FA79FB794049895C404AD154FB79032B76
:1008DC0033D801A252F823F0F508000809090008E2
:1008EC001D09000831090008FC790121384801F084
:1008FC00EDFA03461A46344B1A551FE0FC790221D7
:10090C00334801F0E3FA03461A462F4B1A5515E00B
:10091C00FC7904212E4801F0D9FA03461A462A4BD9
:10092C001A550BE0FC794FF480412A4801F0CEFABD
:10093C0003461A46244B1A5500E000BFFB79224AA5
:10094C00D25CFB792149CB5C9A4231D1FA79FB79A3
:10095C001D49895C204AD154FB791F4AD35C002B7A
:10096C001DD1FB791D4AD35C002B08D1FB791C4AA5
:10097C0032F81320013A91B2194A22F81310FB797C
:10098C00174A32F81330002B12D1FB79134A01218C
:10099C00D154FB79124A642122F8131008E0FB7938
:1009AC000F4A642122F81310FB790C4A0021D15410
:1009BC00FB790133FB71FB79032B81D900BF00BF9D
:1009CC000C37BD4690BD00BFA4010020A80100203B
:1009DC00000C014000080140A0010020AC010020E7
:1009EC00B001002080B483B000AF0346FB71FB79EB
:1009FC00032B01D9002307E0FB79064AD35C002BBB
:100A0C000CBF01230023DBB218460C37BD4680BC5B
:100A1C00704700BFA001002080B483B000AF034634
:100A2C00FB71FB79032B01D9002307E0FB79064A04
:100A3C00D35C012B0CBF01230023DBB218460C370F
:100A4C00BD4680BC704700BFAC01002080B582B0B1
:100A5C0000AF786038497A681346DB009B1A9B001C
:100A6C000B441B68DBB21A468021344801F045FA6E
:100A7C0031497A681346DB009B1A9B000B44043304
:100A8C001B68DBB21A464FF480712C4801F035FA22
:100A9C0029497A681346DB009B1A9B000B440833E8
:100AAC001B68DBB21A464FF40071244801F025FA9A
:100ABC0021497A681346DB009B1A9B000B440C33CC
:100ACC001B68DBB21A464FF480611C4801F015FA22
:100ADC0019497A681346DB009B1A9B000B441033B0
:100AEC001B68DBB21A464FF40061144801F005FA9A
:100AFC0011497A681346DB009B1A9B000B44143394
:100B0C001B68DBB21A464FF480510C4801F0F5F922
:100B1C0009497A681346DB009B1A9B000B44183377
:100B2C001B68DBB21A464FF40051044801F0E5F99A
:100B3C0000BF0837BD4680BD1C00002000080140E6
:100B4C0080B582B000AF786039497A681346DB0013
:100B5C009B1A9B000B441B68DBB21A464FF40071C6
:100B6C00344801F0CAF932497A681346DB009B1A03
:100B7C009B000B4404331B68DBB21A464FF48061B4
:100B8C002C4801F0BAF92A497A681346DB009B1A03
:100B9C009B000B4408331B68DBB21A464FF4006110
:100BAC00244801F0AAF922497A681346DB009B1A03
:100BBC009B000B440C331B68DBB21A464FF480517C
:100BCC001C4801F09AF91A497A681346DB009B1A03
:100BDC009B000B4410331B68DBB21A464FF40051D8
:100BEC00144801F08AF912497A681346DB009B1A03
:100BFC009B000B4414331B68DBB21A464FF4804144
:100C0C000C4801F07AF90A497A681346DB009B1A02
:100C1C009B000B4418331B68DBB21A464FF400419F
:100C2C00044801F06AF900BF0837BD4680BD00BF1B
:100C3C001C000020000C014080B582B000AF786031
:100C4C0001221021124801F058F9012220211048EC
:100C5C0001F053F90F4A7B6852F823301846FFF71E
:100C6C00F5FE7B68002B03D07B68012B06D00BE0D4
:100C7C0000221021064801F040F905E00022202155
:100C8C00034801F03AF900BF00BF0837BD4680BDEC
:100C9C00000C01408C01002080B582B000AF786060
:100CAC0001224021124801F028F90122802110482C
:100CBC0001F023F90F4A7B6852F823301846FFF7EE
:100CCC003FFF7B68002B03D07B68012B06D00BE029
:100CDC0000224021064801F010F905E00022802195
:100CEC00034801F00AF900BF00BF0837BD4680BDBC
:100CFC00000C01409401002080B500AF01220221BC
:100D0C000E4801F0FAF8012204210C4801F0F5F824
:100D1C0001220821094801F0F0F8012210210748AE
:100D2C0001F0EBF801222021044801F0E6F8012241
:100D3C004021024801F0E1F800BF80BD00080140ED
:100D4C0080B582B000AF786001220221184801F012
:100D5C00D4F801220421164801F0CFF80122082111
:100D6C00134801F0CAF87B68022B15D07B68022B64
:100D7C0018DC7B68002B03D07B68012B06D011E0BC
:100D8C00002202210A4801F0B8F80CE000220421EC
:100D9C00074801F0B2F806E000220821044801F0EF
:100DAC00ACF800E000BF00BF0837BD4680BD00BFF7
:100DBC000008014080B582B000AF7860012210219C
:100DCC00184801F09AF801222021164801F095F8F4
:100DDC0001224021134801F090F87B68022B15D0BA
:100DEC007B68022B18DC7B68002B03D07B68012B03
:100DFC0006D011E0002210210A4801F07EF80CE028
:100E0C0000222021074801F078F806E0002240215A
:100E1C00044801F072F800E000BF00BF0837BD467F
:100E2C0080BD00BF0008014080B500AF354B0022EB
:100E3C001A6001221021344801F05FF801222021B0
:100E4C00314801F05AF8012240212F4801F055F8A1
:100E5C00012280212C4801F050F82C4B02221A70F0
:100E6C002B4B05221A602B4B02221A602A4B0322B1
:100E7C001A6001220221294801F03FF801220421C5
:100E8C00264801F03AF800220821244801F035F8F0
:100E9C00214B1B681846FFF753F9214B00221A709F
:100EAC00204B05221A60204B02221A601F4B032292
:100EBC001A6000221021194801F01FF8012220218C
:100ECC00164801F01AF801224021144801F015F8D7
:100EDC00144B1B681846FFF757F9154B05221A607F
:100EEC00144B02221A60144B03221A60134B052276
:100EFC001A60134B02221A60124B03221A6000BFB5
:100F0C0080BD00BF9C010020000C0140340100207A
:100F1C00380100203C010020400100200008014065
:100F2C00B801002044010020480100204C010020A1
:100F3C0010000020140000201800002004000020E5
:100F4C00080000200C00002080B500AF2F4B0022C1
:100F5C001A60012210212E4800F0CFFF012220211F
:100F6C002B4800F0CAFF01224021294800F0C5FFA0
:100F7C0001228021264800F0C0FF264B02221A7065
:100F8C00254B1B68254A1360254B1B68254A1360AB
:100F9C00254B1B68254A136001220221244800F0CE
:100FAC00ACFF01220421224800F0A7FF00220821F7
:100FBC001F4800F0A2FF1D4B1B681846FFF7C0F836
:100FCC001C4B00221A70144B1B681B4A1360144BE9
:100FDC001B681A4A1360144B1B68194A13600022D1
:100FEC001021134800F089FF01222021104800F045
:100FFC0084FF012240210E4800F07FFF0E4B1B683E
:10100C001846FFF7C1F800BF80BD00BF9C0100204F
:10101C00000C0140340100200400002038010020A5
:10102C00080000203C0100200C00002040010020A2
:10103C0000080140B80100204401002048010020B4
:10104C004C01002080B500AF774B1B78022B4AD0A7
:10105C00022B6ADC002B02D0012B22D065E0734BF3
:10106C001B68002B12DCFFF7B3F803466F4A1360C2
:10107C006D4B02221A706E4B1B68013B6C4A13605D
:10108C006B4B1B681846FFF75BF84FE0674B1B6810
:10109C00013B664A1360654B1B681846FFF750F816
:1010AC0044E0644B1B68002B12DCFFF79BF80346F3
:1010BC00604A13605C4B00221A705C4B1B68013B4E
:1010CC005A4A1360594B1B681846FFF739F82DE044
:1010DC00584B1B68013B574A1360564B1B6818460C
:1010EC00FFF72EF822E0524B1B68002B12DCFFF7A7
:1010FC0083F803464E4A13604B4B01221A704D4B3A
:10110C001B68013B4B4A13604A4B1B681846FFF7A0
:10111C0017F80BE0464B1B68013B454A1360444BE8
:10112C001B681846FFF70CF800E000BF424B1B7819
:10113C00022B4AD0022B6ADC002B02D0012B22D0CE
:10114C0065E03E4B1B68002B12DCFFF741F80346B1
:10115C003A4A1360384B02221A70394B1B68013B18
:10116C00374A1360364B1B681846FFF70DF84FE0F3
:10117C00324B1B68013B314A1360304B1B681846DD
:10118C00FFF702F844E02F4B1B68002B12DCFFF733
:10119C0029F803462B4A1360274B00221A70274B61
:1011AC001B68013B254A1360244B1B681846FEF74D
:1011BC00EBFF2DE0234B1B68013B224A1360214BB4
:1011CC001B681846FEF7E0FF22E01D4B1B68002B46
:1011DC0012DCFFF711F80346194A1360164B012273
:1011EC001A70184B1B68013B164A1360154B1B6891
:1011FC001846FEF7C9FF0BE0114B1B68013B104A68
:10120C0013600F4B1B681846FEF7BEFF00E000BFD3
:10121C00054B1B781846FFF793FD074B1B781846B8
:10122C00FFF7C8FD00BF80BD34010020380100204D
:10123C00400100203C010020B801002044010020A6
:10124C004C0100204801002080B582B000AF7860CE
:10125C007B68032B1BD07B68032B21DC7B68012B69
:10126C0003D07B68022B09D01AE002210F4800F052
:10127C005CFE10210D4800F058FE12E004210B48D2
:10128C0000F053FE2021094800F04FFE09E0082130
:10129C00064800F04AFE4021044800F046FE00E0FB
:1012AC0000BF00BF0837BD4680BD00BF000801402D
:1012BC0080B500AF1E4B1B68002B0BD1002000F03B
:1012CC007DFA0346002B13D0002000F04DFAFFF7F7
:1012DC00B9FE0DE0042000F071FA0346002B07D094
:1012EC00042000F041FA124B1B681846FFF7ACFFC4
:1012FC00032000F063FA0346002B16D0032000F005
:10130C0033FA0C4B1B681846FFF796FC094B1B680D
:10131C001846FFF7C1FC074B1B680133002B03F089
:10132C000103B8BF5B42034A136000BF80BD00BF1E
:10133C009C010020BC01002080B500AF00F0DCFA5D
:10134C0000F048F800F0CEF800F080F81E4801F0EC
:10135C0031FAFFF769FD1C4B5B6818461A4BDB68CA
:10136C001A4A194600F0C2F94FF4FA71042000F041
:10137C00D9F94FF47A71052000F0D4F94FF4FA71D1
:10138C00022000F0CFF94FF49671012000F0CAF959
:10139C00FA21032000F0C6F94FF47A71002000F016
:1013AC00C1F9052000F00AFA0346002B06D00520EF
:1013BC0000F0DAF90121064800F0B7FDFEF790FFC6
:1013CC00FFF776FFEDE700BFC001002000127A00A6
:1013DC000008014080B590B000AF07F11803282237
:1013EC000021184601F096FD3B1D00221A605A6040
:1013FC009A60DA601A610223BB610123BB6210237D
:10140C00FB6200237B6307F11803184600F0A6FD6E
:10141C000346002B01D000F0D5F80F237B6000238E
:10142C00BB600023FB6000233B6100237B613B1D01
:10143C000021184601F012F80346002B01D000F0F1
:10144C00C1F800BF4037BD4680BD000080B586B0F6
:10145C0000AF07F1080300221A605A609A60DA6044
:10146C003B4600221A605A601D4B4FF080421A60B6
:10147C001B4B41F63F725A60194B00229A60184B75
:10148C000922DA60164B00221A61154B00229A6170
:10149C00134801F03FF90346002B01D000F092F8FD
:1014AC004FF48053BB6007F1080319460C4801F058
:1014BC00BDFA0346002B01D000F084F800233B60FA
:1014CC0000237B603B461946054801F095FC03461A
:1014DC00002B01D000F076F800BF1837BD4680BD58
:1014EC00C001002080B586B000AF07F108030022D0
:1014FC001A605A609A60DA602F4B9B692E4A43F04F
:10150C00040393612C4B9B6903F004037B607B68A1
:10151C00294B9B69284A43F008039361264B9B692E
:10152C0003F008033B603B68002243F6FF7123483D
:10153C0000F0E3FC00224FF6F061214800F0DDFCE6
:10154C0043F6FF73BB600123FB6000233B61022366
:10155C007B6107F108031946184800F03DFB07238F
:10156C00BB600023FB6001233B6107F108031946B4
:10157C00134800F031FB4FF6F063BB600123FB60B6
:10158C0000233B6102237B6107F1080319460C48D9
:10159C0000F022FB4FF48043BB600023FB6001236F
:1015AC003B6107F108031946044800F015FB00BF26
:1015BC001837BD4680BD00BF001002400008014036
:1015CC00000C014080B400AF72B600BFFEE7000013
:1015DC0080B485B000AF154B9B69144A43F00103EE
:1015EC009361124B9B6903F00103BB60BB680F4B0B
:1015FC00DB690E4A43F08053D3610C4BDB6903F07B
:10160C0080537B607B680A4B5B68FB60FB6823F054
:10161C00E063FB60FB6843F08063FB60044AFB689B
:10162C00536000BF1437BD4680BC704700100240A9
:10163C000000014080B584B000AF78607B681B6807
:10164C00B3F1804F13D10C4BDB690B4A43F0010310
:10165C00D361094BDB6903F00103FB60FB680022DB
:10166C0000211C2000F081FA1C2000F09AFA00BF27
:10167C001037BD4680BD00BF0010024080B400AFE3
:10168C00FEE780B400AFFEE780B400AFFEE780B4A5
:10169C0000AFFEE780B400AFFEE780B400AF00BF40
:1016AC00BD4680BC704780B400AF00BFBD4680BC57
:1016BC00704780B400AF00BFBD4680BC704780B59A
:1016CC0000AF00F05FF900BF80BD000080B500AF37
:1016DC00024801F0BBF800BF80BD00BFC001002074
:1016EC0080B400AF00BFBD4680BC704780B485B0ED
:1016FC0000AFF860B9607A60FB680133BA680132F8
:10170C0002FB03F34FF47A7202FB03F27B6892FB49
:10171C00F3F3034A136000BF1437BD4680BC704717
:10172C005401002080B582B000AF786039607B68CE
:10173C00052B10DC0A4B1B683A6892FBF3F1094845
:10174C007A6813465B0013449B0003441960786865
:10175C0000F00AF800E000BF0837BD4680BD00BFAE
:10176C00540100200802002080B483B000AF7860E0
:10177C007B68052B1BDC10497A6813465B0013440D
:10178C009B000B4419680C487A6813465B001344A1
:10179C009B0003440433196007497A6813465B00C5
:1017AC0013449B000B44083300221A6000E000BF76
:1017BC000C37BD4680BC70470802002080B483B053
:1017CC0000AF78607B68052B01DD00230DE0094933
:1017DC007A6813465B0013449B000B4408331B6868
:1017EC00012B0CBF01230023DBB218460C37BD467E
:1017FC0080BC70470802002080B483B000AF002387
:10180C007B6035E01F497A6813465B0013449B00EC
:10181C000B4404331B68002B27DD1A497A681346E6
:10182C005B0013449B000B4404331B68591E154882
:10183C007A6813465B0013449B000344043319601D
:10184C0010497A6813465B0013449B000B44043325
:10185C001B68002B09D10B497A6813465B001344B3
:10186C009B000B44083301221A607B6801337B60B8
:10187C007B68052BC6DD00BF00BF0C37BD4680BCA6
:10188C00704700BF0802002080B582B000AF7860BE
:10189C007B681B68B3F1804F03D1FFF70BF8FFF7A0
:1018AC00ABFF00BF0837BD4680BD0000FFF718FF37
:1018BC000B480C490C4A002302E0D458C4500433A2
:1018CC00C4188C42F9D3094A094C002301E0136077
:1018DC000432A242FBD301F0F9FAFFF72DFD704759
:1018EC000000002060010020742F0008600100201F
:1018FC0054020020FEE7000080B500AF084B1B68C7
:10190C00074A43F010031360032000F023F90F2063
:10191C0000F008F8FFF75CFE0023184680BD00BFFE
:10192C000020024080B582B000AF7860124B1A687C
:10193C00124B1B7819464FF47A73B3FBF1F3B2FBDD
:10194C00F3F3184600F03BF90346002B01D00123BA
:10195C000EE07B680F2B0AD8002279684FF0FF301D
:10196C0000F003F9064A7B681360002300E00123B2
:10197C0018460837BD4680BD500100205C01002090
:10198C005801002080B400AF054B1B781A46054B5C
:10199C001B681344034A136000BFBD4680BC7047EC
:1019AC005C0100205002002080B400AF024B1B6889
:1019BC001846BD4680BC70475002002080B485B0EC
:1019CC0000AF78607B6803F00703FB600C4BDB68AF
:1019DC00BB60BA684FF6FF031340BB60FB681A028A
:1019EC00BB68134343F0BF6343F40033BB60044A4A
:1019FC00BB68D36000BF1437BD4680BC704700BFC6
:101A0C0000ED00E080B400AF044BDB681B0A03F070
:101A1C0007031846BD4680BC704700BF00ED00E0D0
:101A2C0080B483B000AF0346FB7197F90730002BED
:101A3C000BDBFB7903F01F02064997F907305B09B2
:101A4C00012000FA02F241F8232000BF0C37BD46FA
:101A5C0080BC704700E100E080B483B000AF034667
:101A6C003960FB7197F90730002B0ADB3B68DAB25F
:101A7C000C4997F907301201D2B20B4483F80023BA
:101A8C000AE03B68DAB20849FB7903F00F03043B28
:101A9C001201D2B20B441A7600BF0C37BD4680BC83
:101AAC00704700BF00E100E000ED00E080B489B0B9
:101ABC0000AFF860B9607A60FB6803F00703FB6164
:101ACC00FB69C3F10703042B28BF0423BB61FB692B
:101ADC000433062B02D9FB69033B00E000237B6136
:101AEC004FF0FF32BB6902FA03F3DA43BB681A40CA
:101AFC007B699A404FF0FF317B6901FA03F3D943BC
:101B0C007B680B40134318462437BD4680BC704796
:101B1C0080B582B000AF78607B68013BB3F1807F09
:101B2C0001D301230FE00A4A7B68013B53600F216C
:101B3C004FF0FF30FFF790FF054B00229A60044BEB
:101B4C0007221A60002318460837BD4680BD00BF27
:101B5C0010E000E080B582B000AF78607868FFF7E5
:101B6C002DFF00BF0837BD4680BD80B586B000AFE5
:101B7C000346B9607A60FB7300237B61FFF742FF79
:101B8C0078617A68B9687869FFF790FF024697F92F
:101B9C000F3011461846FFF75FFF00BF1837BD46E0
:101BAC0080BD80B582B000AF0346FB7197F907305A
:101BBC001846FFF735FF00BF0837BD4680BD80B51E
:101BCC0082B000AF78607868FFF7A2FF0346184632
:101BDC000837BD4680BD000080B48BB000AF786084
:101BEC00396000237B6200233B6248E101227B6A5F
:101BFC0002FA03F3FB613B681B68FA691340BB6193
:101C0C00BA69FB699A4240F037813B685B68A34A2A
:101C1C0093425ED0A14A934275D8A14A934258D0C0
:101C2C009F4A93426FD89F4A934252D09D4A934207
:101C3C0069D89D4A93424CD09B4A934263D89B4AA5
:101C4C00934246D0994A93425DD8122B2AD8122B34
:101C5C0059D801A252F823F0DF1C0008B91C000867
:101C6C00CB1C00080D1D0008131D0008131D0008D7
:101C7C00131D0008131D0008131D0008131D000878
:101C8C00131D0008131D0008131D0008131D000868
:101C9C00131D0008131D0008131D0008C11C0008AB
:101CAC00D51C0008824A934213D02CE03B68DB68B9
:101CBC003B6229E03B68DB6804333B6224E03B6811
:101CCC00DB6808333B621FE03B68DB680C333B622C
:101CDC001AE03B689B68002B02D104233B6213E0A3
:101CEC003B689B68012B05D108233B627B68FA6932
:101CFC001A6109E008233B627B68FA695A6103E0C8
:101D0C0000233B6200E000BFBB69FF2B01D87B685E
:101D1C0001E07B6804337B61BB69FF2B02D87B6AD3
:101D2C009B0002E07B6A083B9B003B617B691A6865
:101D3C000F213B6901FA03F3DB431A40396A3B6913
:101D4C0001FA03F31A437B691A603B685B6803F082
:101D5C008053002B00F09080564B9B69554A43F002
:101D6C0001039361534B9B6903F00103BB60BB6898
:101D7C00514A7B6A9B08023352F82330FB607B6A22
:101D8C0003F003039B000F2202FA03F3DB43FA6810
:101D9C001340FB607B68494A93420DD07B68484AEC
:101DAC00934207D07B68474A934201D1022304E057
:101DBC00032302E0012300E000237A6A02F003020D
:101DCC0092009340FA681343FB603B497B6A9B0883
:101DDC000233FA6841F823203B685B6803F48013F4
:101DEC00002B06D0384B9A683749BB6913438B607C
:101DFC0006E0354B9A68BB69DB43334913408B6073
:101E0C003B685B6803F40013002B06D02E4BDA689A
:101E1C002D49BB691343CB6006E02B4BDA68BB69D9
:101E2C00DB4329491340CB603B685B6803F4003308
:101E3C00002B06D0244B5A682349BB6913434B60D3
:101E4C0006E0214B5A68BB69DB431F4913404B60CA
:101E5C003B685B6803F48033002B06D01A4B1A687E
:101E6C001949BB6913430B6006E0174B1A68BB6931
:101E7C00DB43154913400B607B6A01337B623B6883
:101E8C001A687B6A22FA03F3002B7FF4AFAE00BF13
:101E9C0000BF2C37BD4680BC704700BF000032101D
:101EAC000000311000002210000021100000121060
:101EBC000000111000100240000001400008014019
:101ECC00000C0140001001400004014080B485B0BA
:101EDC0000AF78600B467B807B689A687B881340E8
:101EEC00002B02D00123FB7301E00023FB73FB7B6F
:101EFC0018461437BD4680BC704780B483B000AF21
:101F0C0078600B467B8013467B707B78002B03D06C
:101F1C007A887B681A6103E07B881A047B681A61F3
:101F2C0000BF0C37BD4680BC704780B485B000AF95
:101F3C0078600B467B807B68DB68FB607A88FB688B
:101F4C0013401A04FB68D9437B880B401A437B6807
:101F5C001A6100BF1437BD4680BC704780B586B08F
:101F6C0000AF78607B68002B01D101236CE27B68A9
:101F7C001B6803F00103002B00F08780924B5B6819
:101F8C0003F00C03042B0CD08F4B5B6803F00C0399
:101F9C00082B12D18C4B5B6803F48033B3F5803F74
:101FAC000BD1894B1B6803F40033002B6CD07B687E
:101FBC005B68002B68D1012346E27B685B68B3F554
:101FCC00803F06D1804B1B687F4A43F480331360FB
:101FDC002EE07B685B68002B0CD17B4B1B687A4A2C
:101FEC0023F480331360784B1B68774A23F48023E7
:101FFC0013601DE07B685B68B3F5A02F0CD1724BAE
:10200C001B68714A43F4802313606F4B1B686E4A44
:10201C0043F4803313600BE06B4B1B686A4A23F468
:10202C0080331360684B1B68674A23F4802313606A
:10203C007B685B68002B13D0FFF7B6FC386108E0B7
:10204C00FFF7B2FC02463B69D31A642B01D9032378
:10205C00FAE15D4B1B6803F40033002BF0D014E065
:10206C00FFF7A2FC386108E0FFF79EFC02463B69D3
:10207C00D31A642B01D90323E6E1534B1B6803F4F9
:10208C000033002BF0D100E000BF7B681B6803F02D
:10209C000203002B63D04C4B5B6803F00C03002B4A
:1020AC000BD0494B5B6803F00C03082B1CD1464B3F
:1020BC005B6803F48033002B16D1434B1B6803F091
:1020CC000203002B05D07B681B69012B01D0012377
:1020DC00BAE13D4B1B6823F0F8027B685B69DB00BF
:1020EC00394913430B603AE07B681B69002B20D005
:1020FC00364B01221A60FFF757FC386108E0FFF7F6
:10210C0053FC02463B69D31A022B01D903239BE1F2
:10211C002D4B1B6803F00203002BF0D02A4B1B68DD
:10212C0023F0F8027B685B69DB00274913430B60E3
:10213C0015E0264B00221A60FFF736FC386108E0E8
:10214C00FFF732FC02463B69D31A022B01D9032359
:10215C007AE11D4B1B6803F00203002BF0D17B6866
:10216C001B6803F00803002B3AD07B689B69002B9B
:10217C0019D0174B01221A60FFF716FC386108E0E2
:10218C00FFF712FC02463B69D31A022B01D9032339
:10219C005AE10D4B5B6A03F00203002BF0D00120D7
:1021AC0000F09AFA1CE00A4B00221A60FFF7FCFBC5
:1021BC0038610FE0FFF7F8FB02463B69D31A022B9C
:1021CC0008D9032340E100BF001002400000424246
:1021DC00800442429E4B5B6A03F00203002BE9D160
:1021EC007B681B6803F00403002B00F0A68000231F
:1021FC00FB75974BDB6903F08053002B0DD1944B8F
:10220C00DB69934A43F08053D361914BDB6903F054
:10221C008053BB60BB680123FB758E4B1B6803F4BA
:10222C008073002B18D18B4B1B688A4A43F4807344
:10223C001360FFF7B9FB386108E0FFF7B5FB024606
:10224C003B69D31A642B01D90323FDE0814B1B6836
:10225C0003F48073002BF0D07B68DB68012B06D174
:10226C007B4B1B6A7A4A43F0010313622DE07B68B7
:10227C00DB68002B0CD1764B1B6A754A23F00103EB
:10228C001362734B1B6A724A23F0040313621CE043
:10229C007B68DB68052B0CD16D4B1B6A6C4A43F0D9
:1022AC00040313626A4B1B6A694A43F0010313620D
:1022BC000BE0674B1B6A664A23F001031362644B05
:1022CC001B6A634A23F0040313627B68DB68002BF0
:1022DC0015D0FFF769FB38610AE0FFF765FB024692
:1022EC003B69D31A41F28832934201D90323ABE004
:1022FC00574B1B6A03F00203002BEED014E0FFF7E0
:10230C0053FB38610AE0FFF74FFB02463B69D31AD7
:10231C0041F28832934201D9032395E04C4B1B6A5E
:10232C0003F00203002BEED1FB7D012B05D1484BB2
:10233C00DB69474A23F08053D3617B68DB69002B50
:10234C0000F08180424B5B6803F00C03082B61D0DA
:10235C007B68DB69022B46D13F4B00221A60FFF7EA
:10236C0023FB386108E0FFF71FFB02463B69D31AD9
:10237C00022B01D9032367E0354B1B6803F0007374
:10238C00002BF0D17B681B6AB3F5803F08D1304B32
:10239C005B6823F400327B689B682D4913434B60C8
:1023AC002B4B5B6823F474127B68196A7B685B6A3D
:1023BC000B43274913434B60274B01221A60FFF74D
:1023CC00F3FA386108E0FFF7EFFA02463B69D31ADB
:1023DC00022B01D9032337E01D4B1B6803F000735C
:1023EC00002BF0D02FE01C4B00221A60FFF7DCFA18
:1023FC00386108E0FFF7D8FA02463B69D31A022B82
:10240C0001D9032320E0124B1B6803F00073002B4F
:10241C00F0D118E07B68DB69012B01D1012313E0BB
:10242C000B4B5B68FB60FB6803F480327B681B6AB8
:10243C009A4206D1FB6803F470127B685B6A9A427D
:10244C0001D0012300E0002318461837BD4680BD9B
:10245C0000100240007000406000424280B584B021
:10246C0000AF786039607B68002B01D10123D0E08C
:10247C006A4B1B6803F007033A689A4210D9674B02
:10248C001B6823F0070265493B6813430B60634BE1
:10249C001B6803F007033A689A4201D00123B8E0A5
:1024AC007B681B6803F00203002B20D07B681B6841
:1024BC0003F00403002B05D0594B5B68584A43F4D6
:1024CC00E06353607B681B6803F00803002B05D0A6
:1024DC00534B5B68524A43F460535360504B5B68F8
:1024EC0023F0F0027B689B684D4913434B607B687B
:1024FC001B6803F00103002B40D07B685B68012B49
:10250C0007D1474B1B6803F40033002B15D1012373
:10251C007FE07B685B68022B07D1414B1B6803F0A3
:10252C000073002B09D1012373E03D4B1B6803F0B2
:10253C000203002B01D101236BE0394B5B6823F0C4
:10254C0003027B685B68364913434B60FFF72CFA38
:10255C00F8600AE0FFF728FA0246FB68D31A41F24A
:10256C008832934201D9032353E02D4B5B6803F06F
:10257C000C027B685B689B009A42EBD1274B1B6873
:10258C0003F007033A689A4210D2244B1B6823F0DD
:10259C00070222493B6813430B60204B1B6803F076
:1025AC0007033A689A4201D0012332E07B681B682A
:1025BC0003F00403002B08D0194B5B6823F4E06292
:1025CC007B68DB68164913434B607B681B6803F020
:1025DC000803002B09D0124B5B6823F460527B6814
:1025EC001B69DB000E4913434B6000F021F80246D7
:1025FC000B4B5B681B0903F00F030A49CB5C22FAF7
:10260C0003F3094A1360094B1B681846FFF78AF954
:10261C00002318461037BD4680BD00BF0020024085
:10262C0000100240482F00085001002058010020E3
:10263C0080B487B000AF0023FB600023BB60002395
:10264C007B6100237B6000233B611E4B5B68FB605E
:10265C00FB6803F00C03042B02D0082B03D027E0FB
:10266C00194B3B6127E0FB689B0C03F00F03174AE7
:10267C00D35C7B60FB6803F48033002B10D0114BD0
:10268C005B685B0C03F00103114AD35CBB607B6895
:10269C000D4A02FB03F2BB68B2FBF3F37B6104E06F
:1026AC007B680C4A02FB03F37B617B693B6102E0B4
:1026BC00054B3B6100BF3B6918461C37BD4680BCCF
:1026CC00704700BF0010024000127A00582F00081B
:1026DC00682F000800093D0080B485B000AF786019
:1026EC000A4B1B680A4AA2FB03235B0A7A6802FBAB
:1026FC0003F3FB6000BFFB685A1EFA60002BF9D194
:10270C0000BF00BF1437BD4680BC7047500100208D
:10271C00D34D621080B582B000AF78607B68002B1F
:10272C0001D1012341E07B6893F83D30DBB2002BF3
:10273C0006D17B68002283F83C207868FEF77AFF8C
:10274C007B68022283F83D207B681A687B6804331F
:10275C001946104600F056FA7B68012283F8462091
:10276C007B68012283F83E207B68012283F83F209E
:10277C007B68012283F840207B68012283F841208A
:10278C007B68012283F842207B68012283F8432076
:10279C007B68012283F844207B68012283F8452062
:1027AC007B68012283F83D20002318460837BD467C
:1027BC0080BD000080B485B000AF78607B6893F872
:1027CC003D30DBB2012B01D0012335E07B680222C6
:1027DC0083F83D207B681B68DA687B681B6842F0D5
:1027EC000102DA607B681B68164A934209D07B6849
:1027FC001B68B3F1804F04D07B681B68124A93426C
:10280C0011D17B681B689B6803F00703FB60FB68B6
:10281C00062B10D07B681B681A687B681B6842F01B
:10282C0001021A6007E07B681B681A687B681B68EA
:10283C0042F001021A60002318461437BD4680BCD2
:10284C00704700BF002C01400004004080B584B0EC
:10285C0000AF78607B681B68DB68FB607B681B687B
:10286C001B69BB60BB6803F00203002B20D0FB6824
:10287C0003F00203002B1BD07B681B686FF0020275
:10288C001A617B6801221A777B681B689B6903F0CD
:10289C000303002B03D0786800F098F905E0786802
:1028AC0000F08BF9786800F09AF97B6800221A77AF
:1028BC00BB6803F00403002B20D0FB6803F0040377
:1028CC00002B1BD07B681B686FF004021A617B68BD
:1028DC0002221A777B681B689B6903F44073002BF8
:1028EC0003D0786800F072F905E0786800F065F9BB
:1028FC00786800F074F97B6800221A77BB6803F0E3
:10290C000803002B20D0FB6803F00803002B1BD01E
:10291C007B681B686FF008021A617B6804221A77C7
:10292C007B681B68DB6903F00303002B03D078681A
:10293C0000F04CF905E0786800F03FF9786800F099
:10294C004EF97B6800221A77BB6803F01003002B4A
:10295C0020D0FB6803F01003002B1BD07B681B6896
:10296C006FF010021A617B6808221A777B681B686B
:10297C00DB6903F44073002B03D0786800F026F970
:10298C0005E0786800F019F9786800F028F97B68A0
:10299C0000221A77BB6803F00103002B0CD0FB68F4
:1029AC0003F00103002B07D07B681B686FF001025A
:1029BC001A617868FEF768FFBB6803F08003002B90
:1029CC000CD0FB6803F08003002B07D07B681B68DE
:1029DC006FF080021A61786800F06FFABB6803F040
:1029EC004003002B0CD0FB6803F04003002B07D0F6
:1029FC007B681B686FF040021A61786800F0F8F889
:102A0C00BB6803F02003002B0CD0FB6803F0200301
:102A1C00002B07D07B681B686FF020021A61786866
:102A2C0000F042FA00BF1037BD4680BD80B584B0BF
:102A3C0000AF786039600023FB737B6893F83C30FF
:102A4C00012B01D10223B4E07B68012283F83C20E6
:102A5C007B68022283F83D207B681B689B68BB6007
:102A6C00BB6823F07703BB60BB6823F47F43BB6078
:102A7C007B681B68BA689A603B681B68B3F5005F9B
:102A8C003ED0B3F5005F00F28780B3F5805F00F0B5
:102A9C008680B3F5805F7FD8702B1AD0702B7BD8D3
:102AAC00602B50D0602B77D8502B3CD0502B73D848
:102ABC00402B58D0402B6FD8302B64D0302B6BD898
:102ACC00202B60D0202B67D8002B5CD0102B5AD039
:102ADC0062E07B6818683B6899683B685A683B6899
:102AEC00DB6800F06AF97B681B689B68BB60BB689D
:102AFC0043F07703BB607B681B68BA689A604FE051
:102B0C007B6818683B6899683B685A683B68DB6867
:102B1C0000F053F97B681B689A687B681B6842F469
:102B2C0080429A603CE07B6818683B6859683B6857
:102B3C00DB681A4600F0CAF87B681B6850211846FF
:102B4C0000F021F92CE07B6818683B6859683B68F9
:102B5C00DB681A4600F0E8F87B681B6860211846B1
:102B6C0000F011F91CE07B6818683B6859683B68F9
:102B7C00DB681A4600F0AAF87B681B6840211846EF
:102B8C0000F001F90CE07B681A683B681B68194679
:102B9C00104600F0F8F803E00123FB7300E000BFDF
:102BAC007B68012283F83D207B68002283F83C205F
:102BBC00FB7B18461037BD4680BD80B483B000AF98
:102BCC00786000BF0C37BD4680BC704780B483B0C2
:102BDC0000AF786000BF0C37BD4680BC704780B436
:102BEC0083B000AF786000BF0C37BD4680BC704727
:102BFC0080B483B000AF786000BF0C37BD4680BC9A
:102C0C007047000080B485B000AF786039607B6895
:102C1C001B68FB607B682B4A934207D07B68B3F13F
:102C2C00804F03D07B68284A934208D1FB6823F07D
:102C3C007003FB603B685B68FA681343FB607B685E
:102C4C00204A934207D07B68B3F1804F03D07B6856
:102C5C001D4A934208D1FB6823F44073FB603B6828
:102C6C00DB68FA681343FB60FB6823F080023B6867
:102C7C005B691343FB607B68FA681A603B689A686F
:102C8C007B68DA623B681A687B689A627B680D4ADB
:102C9C00934203D13B681A697B681A637B680122F3
:102CAC005A617B681B6903F00103002B05D07B681C
:102CBC001B6923F001027B681A6100BF1437BD4603
:102CCC0080BC7047002C01400004004080B487B0E9
:102CDC0000AFF860B9607A60FB681B6A7B61FB68C7
:102CEC001B6A23F00102FB681A62FB689B693B615B
:102CFC003B6923F0F0033B617B681B013A6913438A
:102D0C003B617B6923F00A037B617A69BB681343DF
:102D1C007B61FB683A699A61FB687A691A6200BF49
:102D2C001C37BD4680BC704780B487B000AFF860DC
:102D3C00B9607A60FB681B6A7B61FB681B6A23F0D5
:102D4C001002FB681A62FB689B693B613B6923F4C8
:102D5C0070433B617B681B033A6913433B617B699E
:102D6C0023F0A0037B61BB681B017A6913437B6171
:102D7C00FB683A699A61FB687A691A6200BF1C3772
:102D8C00BD4680BC704780B485B000AF78603960B8
:102D9C007B689B68FB60FB6823F07003FB603A6800
:102DAC00FB68134343F00703FB607B68FA689A6087
:102DBC0000BF1437BD4680BC704780B487B000AFED
:102DCC00F860B9607A603B60FB689B687B617B69EB
:102DDC0023F47F437B613B681A027B681A43BB6810
:102DEC0013437A6913437B61FB687A699A6000BF6D
:102DFC001C37BD4680BC704780B485B000AF78608E
:102E0C0039607B6893F83C30012B01D1022341E0FF
:102E1C007B68012283F83C207B68022283F83D20EA
:102E2C007B681B685B68FB607B681B689B68BB608E
:102E3C00FB6823F07003FB603B681B68FA68134364
:102E4C00FB607B681B68FA685A607B681B68144AD5
:102E5C00934209D07B681B68B3F1804F04D07B6828
:102E6C001B68104A93420CD1BB6823F08003BB60F3
:102E7C003B685B68BA681343BB607B681B68BA68C5
:102E8C009A607B68012283F83D207B68002283F8DE
:102E9C003C20002318461437BD4680BC704700BF49
:102EAC00002C01400004004080B483B000AF786077
:102EBC0000BF0C37BD4680BC704780B483B000AFF8
:102ECC00786000BF0C37BD4680BC704770B50026DB
:102EDC000C4D0D4C641BA410A64209D100F022F835
:102EEC0000260A4D0A4C641BA410A64205D170BDE5
:102EFC0055F8043B98470136EEE755F8043B9847E4
:102F0C000136F2E76C2F00086C2F00086C2F0008BC
:102F1C00702F000803460244934200D1704703F817
:102F2C00011BF9E7F8B500BFF8BC08BC9E4670471A
:0C2F3C00F8B500BFF8BC08BC9E4670470A
:102F48000000000000000000010203040607080951
:102F580002030405060708090A0B0C0D0E0F1010D2
:042F68000102000062
:042F6C003101000827
:042F70000D01000847
:102F7400040000000500000002000000030000003F
:102F84000500000002000000030000000000000033
:102F9400000000000000000000000000000000002D
:102FA400000000000100000001000000000000001B
:102FB400000000000100000001000000010000000A
:102FC40001000000000000000000000001000000FB
:102FD40000000000000000000100000000000000EC
:102FE40000000000000000000000000000000000DD
:102FF40001000000010000000000000001000000CA
:1030040000000000000000000100000001000000BA
:1030140000000000000000000000000001000000AB
:10302400000000000000000001000000000000009B
:10303400000000000000000001000000000000008B
:10304400000000000000000000000000000000007C
:10305400000000000000000000000000010000006B
:103064000100000001000000010000000000000059
:10307400000000000000000000000000000000004C
:10308400000000000000000000000000000000003C
:10309400000000000000000001000000000000002B
:1030A4000000000002000000050000000200000013
:1030B40003000000050000000200000003000000FF
:1030C40000127A000A000000100000000100000055
:04000005080018B91E
:00000001FF
