:020000040800F2
:1000000000280020A9190008791700087F170008A8
:10001000851700088B1700089117000800000000E2
:10002000000000000000000000000000971700081A
:10003000A317000800000000AF170008BB17000856
:10004000F1190008F1190008F1190008F119000868
:10005000F1190008F1190008F1190008F119000858
:10006000F1190008F1190008F1190008F119000848
:10007000F1190008F1190008F1190008F119000838
:10008000F1190008F1190008F1190008F119000828
:10009000F1190008F1190008F1190008F119000818
:1000A000F1190008F1190008F1190008F119000808
:1000B000C9170008F119000800000000F119000834
:1000C000F11900080000000000000000F11900080C
:1000D00000000000F1190008F119000800000000FC
:1000E000F1190008F1190008F119000800000000DA
:1000F0000000000000000000000000000000000000
:0C01000000000000000000005FF808F1A3
:10010C0010B5054C237833B9044B13B10448AFF345
:10011C0000800123237010BD60010020000000004E
:10012C002030000808B5034B1BB103490348AFF35B
:10013C00008008BD00000000640100202030000891
:10014C0080B483B000AF78607B680D4A82FB0312E9
:10015C009210DB17D31A0B4A13607968084B83FB98
:10016C0001239A10CB17D21A13469B0013445B0041
:10017C00CA1A044B5A6000BF0C37BD4680BC70478E
:10018C00676666668C01002080B483B000AF78602F
:10019C007B680D4A82FB03129210DB17D31A0B4AB1
:1001AC0013607968084B83FB01239A10CB17D21A82
:1001BC0013469B0013445B00CA1A044B5A6000BFE1
:1001CC000C37BD4680BC704767666666940100209C
:1001DC0080B400AF024B1B681846BD4680BC70470C
:1001EC000400002080B400AF024B1B681846BD46CB
:1001FC0080BC70470800002080B400AF024B1B6825
:10020C001846BD4680BC70470C00002080B483B0FB
:10021C0000AF78607B68042B19D07B68042B4EDC14
:10022C007B68022B03D07B68032B08D047E0264B5E
:10023C001A68264B1B68D31A254A13601DE0224B03
:10024C001A68224B1B68D31A214A136015E0204B05
:10025C001A681D4B1B689A4207DB1D4B1A681B4B17
:10026C001B681344184A136006E0174B1A68184BA6
:10027C001B68D31A154A136000BF134B1B68002B65
:10028C0007DB124B1B68002B03DB114B1B68002B8D
:10029C0008DA0D4B05221A600C4B02221A600C4B2B
:1002AC0003221A60084B1B680A4A1360074B1B6831
:1002BC00094A1360064B1B68084A136000E000BF34
:1002CC000C37BD4680BC704704000020080000209D
:1002DC000C0000201000002014000020180000204A
:1002EC0080B582B000AFAB4B1B78022B00F0B7800F
:1002FC00022B00F3BE80002B02D0012B0ED0B8E0F5
:10030C00002000F0A3FB0346002B03D0A14B0122DD
:10031C001A70B3E0A04B00221A60AFE0012001F08C
:10032C00C5FA0346002B00F086809B4B1B68002B04
:10033C0040F08180012001F08FFA974B01221A6066
:10034C00964B1B68002B03D1954B00221A6064E07E
:10035C00924B1B68002B38DD924B1B685A1E8F4B3F
:10036C001B689A4231DD8D4B1B6801331846FFF731
:10037C00E7FE8A4B1B680133042B1AD0042B22DCBA
:10038C00022B02D0032B0AD01DE0874B1B68874A37
:10039C001360864B1B681846FFF7F6FE14E0844B7F
:1003AC001B68844A1360834B1B681846FFF7ECFEEE
:1003BC000AE0814B1B68814A1360804B1B6818460E
:1003CC00FFF7E2FE00E000BF27E0764B1B685A1EE9
:1003DC00724B1B689A4220D1002001F03DFA784BF9
:1003EC0002221A70774B00221A706F4B1B68764AE8
:1003FC0013606D4B1B68754A13606D4B1B68744A18
:10040C0013606B4B1B68734A13606B4B1B68724A0F
:10041C001360694B1B68714A1360604B1B68013396
:10042C00604A126893FBF2F102FB01F29B1A5B4AE1
:10043C00136000F095FC002000F022FB0346002B1B
:10044C0003D1544B00221A7015E0002000F018FB69
:10045C000346002B0FD04F4B02221A700BE00020EA
:10046C0000F0F4FA0346002B07D14A4B00221A7015
:10047C0003E000BF02E000BF00E000BF584B1B7858
:10048C00022B00F0C780022B00F32481002B03D039
:10049C00012B00F0AB801DE1012000F0D7FA0346E0
:1004AC00002B6FD04E4B01221A70012001F0FEF987
:1004BC000346002B6AD04B4B1B68002B66D10120E6
:1004CC0001F0CAF9474B01221A60344B1B68013BFF
:1004DC00032B5DD801A252F823F000BFF9040008E9
:1004EC00130500083D050008670500082C4B1B6828
:1004FC000133002B03F00103B8BF5B42284A1360A1
:10050C0000F02EFC45E0294B1B685A1C364B83FB34
:10051C0002135911D317CB1A642101FB03F3D31A1D
:10052C00224A1360214B1B681846FFF72DFE30E062
:10053C00204B1B685A1C2C4B83FB02135911D317ED
:10054C00CB1A642101FB03F3D31A1A4A1360194B1B
:10055C001B681846FFF718FE1BE0184B1B685A1C4B
:10056C00214B83FB02135911D317CB1A642101FBC6
:10057C0003F3D31A114A1360104B1B681846FFF78C
:10058C0003FE06E0174B00221A60A6E000BFA4E0B1
:10059C0000BFA2E0880100207C0100209C0100200B
:1005AC00A00100200000002004000020100000200A
:1005BC0008000020140000200C000020180000206F
:1005CC0034010020BC01002038010020440100202F
:1005DC003C01002048010020400100204C0100207B
:1005EC0089010020800100201F85EB51012000F0C3
:1005FC0047FA0346002B03D1B04B00221A706BE074
:10060C00012000F03DFA0346002B65D0AB4B0222D3
:10061C001A7061E0012000F019FA0346002B02D198
:10062C00A64B00221A70022001F040F90346002B61
:10063C004CD0022001F010F9A14B1B68042B30D0D8
:10064C00042B45DC022B02D0032B15D040E09D4B34
:10065C001B685A1C9C4B83FB02135911D317CB1AE2
:10066C00642101FB03F3D31A964A1360954B1B6864
:10067C001846FFF789FD2CE0944B1B685A1C924BD3
:10068C0083FB02135911D317CB1A642101FB03F31B
:10069C00D31A8E4A13608D4B1B681846FFF774FDF6
:1006AC0017E08B4B1B685A1C874B83FB02135911A9
:1006BC00D317CB1A642101FB03F3D31A844A1360BA
:1006CC00834B1B681846FFF75FFD02E000BF04E098
:1006DC0000BF02E000BF00E000BF7E4B1B78022B86
:1006EC0061D0022B69DC002B02D0012B0ED064E010
:1006FC00022000F0ABF90346002B03D0754B01220E
:10070C001A705FE0744B00221A605BE0012001F06C
:10071C00CDF80346002B32D06F4B1B68002B2ED12B
:10072C00012001F099F86C4B01221A60644B1B6894
:10073C00013B032B1DD801A252F823F059070008E6
:10074C00610700086B070008750700085C4B002266
:10075C001A600FE05B4B1B68604A13600AE05B4B4E
:10076C001B685F4A136005E0594B1B685D4A1360B8
:10077C0000E000BF524B1B681846FFF747FD0220F4
:10078C0000F07EF90346002B03D1524B00221A7065
:10079C0015E0022000F074F90346002B0FD04D4BEE
:1007AC0002221A700BE0022000F050F90346002BD5
:1007BC0007D1484B00221A7003E000BF02E000BFD3
:1007CC0000E000BF484B1B78022B00F08F80022BFF
:1007DC0000F39680002B02D0012B4CD090E003202C
:1007EC0000F034F90346002B00F08C803E4B0122C4
:1007FC001A70334B1B68042B2FD801A252F823F02C
:10080C002108000867080008250800083B080008B4
:10081C005108000800F0CCFB304B1B68294A1360D0
:10082C00284B1B68013B1846FFF7AEFC16E02C4B1F
:10083C001B68264A1360254B1B68013B1846FFF7C3
:10084C00A3FC0BE0274B1B68214A1360204B1B6851
:10085C00013B1846FFF798FC00E000BF00237B60CB
:10086C0005E0786800F0F8FF7B6801337B607B68FB
:10087C00052BF6DD46E0032000F002F90346002BC1
:10088C0003D1194B00221A703EE0032000F0F8F857
:10089C000346002B38D0144B02221A7000F0F8FAE1
:1008AC0000233B6005E0386800F0D6FF3B6801335D
:1008BC003B603B68052BF6DD26E000BF890100207C
:1008CC009C010020100000201F85EB51140000201B
:1008DC00180000208A010020840100200400002060
:1008EC00080000200C0000208B010020032000F0E9
:1008FC00ADF80346002B09D1074B00221A7005E016
:10090C0000BF04E000BF02E000BF00E000BF00BF7A
:10091C000837BD4680BD00BF8B01002090B583B069
:10092C0000AF0023FB717AE0FA79FB794049895CCE
:10093C00404AD154FB79032B33D801A252F823F04F
:10094C005D0900087109000885090008990900086B
:10095C00FC790121384801F031FB03461A46344B2F
:10096C001A551FE0FC790221334801F027FB03469E
:10097C001A462F4B1A5515E0FC7904212E4801F02C
:10098C001DFB03461A462A4B1A550BE0FC794FF413
:10099C0080412A4801F012FB03461A46244B1A5593
:1009AC0000E000BFFB79224AD25CFB792149CB5C89
:1009BC009A4231D1FA79FB791D49895C204AD1548C
:1009CC00FB791F4AD35C002B1DD1FB791D4AD35CEC
:1009DC00002B08D1FB791C4A32F81320013A91B252
:1009EC00194A22F81310FB79174A32F81330002BEE
:1009FC0012D1FB79134A0121D154FB79124A64219B
:100A0C0022F8131008E0FB790F4A642122F8131026
:100A1C00FB790C4A0021D154FB790133FB71FB7932
:100A2C00032B81D900BF00BF0C37BD4690BD00BF62
:100A3C00A8010020AC010020000C0140000801407E
:100A4C00A4010020B0010020B401002080B483B0C8
:100A5C0000AF0346FB71FB79032B01D9002307E0A0
:100A6C00FB79064AD35C002B0CBF01230023DBB2BD
:100A7C0018460C37BD4680BC704700BFA40100204F
:100A8C0080B483B000AF0346FB71FB79032B01D913
:100A9C00002307E0FB79064AD35C012B0CBF012332
:100AAC000023DBB218460C37BD4680BC704700BF34
:100ABC00B001002080B582B000AF786038497A6808
:100ACC001346DB009B1A9B000B441B68DBB21A46D7
:100ADC008021344801F089FA31497A681346DB00E9
:100AEC009B1A9B000B4404331B68DBB21A464FF471
:100AFC0080712C4801F079FA29497A681346DB0099
:100B0C009B1A9B000B4408331B68DBB21A464FF44C
:100B1C000071244801F069FA21497A681346DB0018
:100B2C009B1A9B000B440C331B68DBB21A464FF428
:100B3C0080611C4801F059FA19497A681346DB00A8
:100B4C009B1A9B000B4410331B68DBB21A464FF404
:100B5C000061144801F049FA11497A681346DB0028
:100B6C009B1A9B000B4414331B68DBB21A464FF4E0
:100B7C0080510C4801F039FA09497A681346DB00B8
:100B8C009B1A9B000B4418331B68DBB21A464FF4BC
:100B9C000051044801F029FA00BF0837BD4680BD5A
:100BAC001C0000200008014080B582B000AF7860C6
:100BBC0039497A681346DB009B1A9B000B441B686F
:100BCC00DBB21A464FF40071344801F00EFA324988
:100BDC007A681346DB009B1A9B000B4404331B689A
:100BEC00DBB21A464FF480612C4801F0FEF92A4919
:100BFC007A681346DB009B1A9B000B4408331B6876
:100C0C00DBB21A464FF40061244801F0EEF9224998
:100C1C007A681346DB009B1A9B000B440C331B6851
:100C2C00DBB21A464FF480511C4801F0DEF91A4928
:100C3C007A681346DB009B1A9B000B4410331B682D
:100C4C00DBB21A464FF40051144801F0CEF91249A8
:100C5C007A681346DB009B1A9B000B4414331B6809
:100C6C00DBB21A464FF480410C4801F0BEF90A4938
:100C7C007A681346DB009B1A9B000B4418331B68E5
:100C8C00DBB21A464FF40041044801F0AEF900BF44
:100C9C000837BD4680BD00BF1C000020000C014081
:100CAC0080B582B000AF786001221021124801F0AB
:100CBC009CF901222021104801F097F90F4A7B681A
:100CCC0052F823301846FFF7F5FE7B68002B03D053
:100CDC007B68012B06D00BE000221021064801F0A6
:100CEC0084F905E000222021034801F07EF900BFC1
:100CFC0000BF0837BD4680BD000C01408C010020B0
:100D0C0080B582B000AF786001224021124801F01A
:100D1C006CF901228021104801F067F90F4A7B68B9
:100D2C0052F823301846FFF73FFF7B68002B03D0A7
:100D3C007B68012B06D00BE000224021064801F015
:100D4C0054F905E000228021034801F04EF900BF60
:100D5C0000BF0837BD4680BD000C01409401002047
:100D6C0080B500AF012202210E4801F03EF90122AC
:100D7C0004210C4801F039F901220821094801F03D
:100D8C0034F901221021074801F02FF9012220210A
:100D9C00044801F02AF901224021024801F025F90A
:100DAC0000BF80BD0008014080B582B000AF786004
:100DBC0001220221184801F018F9012204211648D9
:100DCC0001F013F901220821134801F00EF97B6898
:100DDC00022B15D07B68022B18DC7B68002B03D010
:100DEC007B68012B06D011E0002202210A4801F099
:100DFC00FCF80CE000220421074801F0F6F806E0AC
:100E0C0000220821044801F0F0F800E000BF00BF08
:100E1C000837BD4680BD00BF0008014080B582B0D8
:100E2C0000AF786001221021184801F0DEF8012291
:100E3C002021164801F0D9F801224021134801F075
:100E4C00D4F87B68022B15D07B68022B18DC7B68EE
:100E5C00002B03D07B68012B06D011E0002210215F
:100E6C000A4801F0C2F80CE000222021074801F0EA
:100E7C00BCF806E000224021044801F0B6F800E07E
:100E8C0000BF00BF0837BD4680BD00BF0008014051
:100E9C0080B500AF354B00221A6001221021344876
:100EAC0001F0A3F801222021314801F09EF8012223
:100EBC0040212F4801F099F8012280212C4801F0A3
:100ECC0094F82C4B02221A702B4B05221A602B4BD8
:100EDC0002221A602A4B03221A600122022129489D
:100EEC0001F083F801220421264801F07EF800224B
:100EFC000821244801F079F8214B1B681846FFF7AC
:100F0C001FF9214B00221A70204B05221A60204B2E
:100F1C0002221A601F4B03221A600022102119486A
:100F2C0001F063F801222021164801F05EF801223D
:100F3C004021144801F059F8144B1B681846FFF770
:100F4C0023F9154B05221A60144B02221A60144B1C
:100F5C0003221A60134B05221A60134B02221A60EB
:100F6C00124B03221A6000BF80BD00BF9C01002001
:100F7C00000C014034010020380100203C0100200D
:100F8C004001002000080140BC0100204401002069
:100F9C00480100204C01002010000020140000200B
:100FAC001800002004000020080000200C00002085
:100FBC0080B500AF2F4B00221A60012210212E4861
:100FCC0001F013F8012220212B4801F00EF8012228
:100FDC004021294801F009F801228021264801F01E
:100FEC0004F8264B02221A70254B1B68254A136005
:100FFC00254B1B68254A1360254B1B68254A13603B
:10100C0001220221244800F0F0FF01220421224891
:10101C0000F0EBFF002208211F4800F0E6FF1D4BFB
:10102C001B681846FFF78CF81C4B00221A70144BE7
:10103C001B681B4A1360144B1B681A4A1360144B31
:10104C001B68194A136000221021134800F0CDFFD1
:10105C0001222021104800F0C8FF012240210E4837
:10106C0000F0C3FF0E4B1B681846FFF78DF800BF4E
:10107C0080BD00BF9C010020000C01403401002009
:10108C000400002038010020080000203C01002052
:10109C000C0000204001002000080140BC01002091
:1010AC0044010020480100204C01002080B500AF15
:1010BC00774B1B78022B4AD0022B6ADC002B02D018
:1010CC00012B22D065E0734B1B68002B12DCFFF761
:1010DC007FF803466F4A13606D4B02221A706E4BF9
:1010EC001B68013B6C4A13606B4B1B681846FFF77F
:1010FC0027F84FE0674B1B68013B664A1360654B52
:10110C001B681846FFF71CF844E0644B1B68002B67
:10111C0012DCFFF767F80346604A13605C4B002251
:10112C001A705C4B1B68013B5A4A1360594B1B6885
:10113C001846FFF705F82DE0584B1B68013B574A42
:10114C001360564B1B681846FEF7FAFF22E0524B11
:10115C001B68002B12DCFFF74FF803464E4A136056
:10116C004B4B01221A704D4B1B68013B4B4A1360D1
:10117C004A4B1B681846FEF7E3FF0BE0464B1B6817
:10118C00013B454A1360444B1B681846FEF7D8FFD9
:10119C0000E000BF424B1B78022B4AD0022B6ADCCA
:1011AC00002B02D0012B22D065E03E4B1B68002B9C
:1011BC0012DCFFF70DF803463A4A1360384B022253
:1011CC001A70394B1B68013B374A1360364B1B684E
:1011DC001846FEF7D9FF4FE0324B1B68013B314AF2
:1011EC001360304B1B681846FEF7CEFF44E02F4BC4
:1011FC001B68002B12DCFEF7F5FF03462B4A13602D
:10120C00274B00221A70274B1B68013B254A1360A1
:10121C00244B1B681846FEF7B7FF2DE0234B1B68C9
:10122C00013B224A1360214B1B681846FEF7ACFFAA
:10123C0022E01D4B1B68002B12DCFEF7DDFF034682
:10124C00194A1360164B01221A70184B1B68013B8C
:10125C00164A1360154B1B681846FEF795FF0BE0FA
:10126C00114B1B68013B104A13600F4B1B6818464F
:10127C00FEF78AFF00E000BF054B1B781846FFF70E
:10128C0093FD074B1B781846FFF7C8FD00BF80BDC8
:10129C003401002038010020400100203C010020D6
:1012AC00BC010020440100204C010020480100201A
:1012BC0080B582B000AF78607B68042B1BD07B6854
:1012CC00042B21DC7B68022B03D07B68032B09D019
:1012DC001AE002210F4800F0A0FE10210D4800F08A
:1012EC009CFE12E004210B4800F097FE20210948D7
:1012FC0000F093FE09E00821064800F08EFE402124
:10130C00044800F08AFE00E000BF00BF0837BD466D
:10131C0080BD00BF0008014080B500AF3D4B1B688D
:10132C00042B4FDC022B3EDA002B02D0012B0CD00D
:10133C0048E0002000F0BAFA0346002B44D000200D
:10134C0000F08AFAFFF7B2FE3EE00122102132488B
:10135C0000F04BFE012220212F4800F046FE012216
:10136C0040212D4800F041FE012280212A4800F046
:10137C003CFE2A4B1B68002B0AD10022082128486E
:10138C0000F033FE00221021254800F02EFE1EE056
:10139C0000224021224800F028FE00220221204891
:1013AC0000F023FE13E0042000F080FA0346002B2B
:1013BC000CD0042000F050FA164B1B681846FFF7AF
:1013CC0077FF03E000BF02E000BF00E000BF032096
:1013DC0000F06CFA0346002B1AD00E4B1B68012B45
:1013EC0016D0032000F038FA0E4B1B681846FFF796
:1013FC0057FC0C4B1B681846FFF782FC094B1B680B
:10140C000133002B03F00103B8BF5B42054A1360A4
:10141C0000BF80BD9C010020000C0140A0010020F9
:10142C0000080140C001002080B500AF00F0DCFADC
:10143C0000F048F800F0CEF800F080F81E4801F0FB
:10144C0031FAFFF725FD1C4B5B6818461A4BDB681D
:10145C001A4A194600F0C2F94FF4FA71042000F050
:10146C00D9F94FF47A71052000F0D4F94FF4FA71E0
:10147C00022000F0CFF94FF49671012000F0CAF968
:10148C00FA21032000F0C6F94FF47A71002000F025
:10149C00C1F9052000F00AFA0346002B06D00520FE
:1014AC0000F0DAF90121064800F0B7FDFEF718FF4D
:1014BC00FFF732FFEDE700BFC401002000127A00F5
:1014CC000008014080B590B000AF07F11803282246
:1014DC000021184601F096FD3B1D00221A605A604F
:1014EC009A60DA601A610223BB610123BB6210238C
:1014FC00FB6200237B6307F11803184600F0A6FD7E
:10150C000346002B01D000F0D5F80F237B6000239D
:10151C00BB600023FB6000233B6100237B613B1D10
:10152C000021184601F012F80346002B01D000F000
:10153C00C1F800BF4037BD4680BD000080B586B005
:10154C0000AF07F1080300221A605A609A60DA6053
:10155C003B4600221A605A601D4B4FF080421A60C5
:10156C001B4B41F63F725A60194B00229A60184B84
:10157C000922DA60164B00221A61154B00229A617F
:10158C00134801F03FF90346002B01D000F092F80C
:10159C004FF48053BB6007F1080319460C4801F067
:1015AC00BDFA0346002B01D000F084F800233B6009
:1015BC0000237B603B461946054801F095FC034629
:1015CC00002B01D000F076F800BF1837BD4680BD67
:1015DC00C401002080B586B000AF07F108030022DB
:1015EC001A605A609A60DA602F4B9B692E4A43F05E
:1015FC00040393612C4B9B6903F004037B607B68B1
:10160C00294B9B69284A43F008039361264B9B693D
:10161C0003F008033B603B68002243F6FF7123484C
:10162C0000F0E3FC00224FF6F061214800F0DDFCF5
:10163C0043F6FF73BB600123FB6000233B61022375
:10164C007B6107F108031946184800F03DFB07239E
:10165C00BB600023FB6001233B6107F108031946C3
:10166C00134800F031FB4FF6F063BB600123FB60C5
:10167C0000233B6102237B6107F1080319460C48E8
:10168C0000F022FB4FF48043BB600023FB6001237E
:10169C003B6107F108031946044800F015FB00BF35
:1016AC001837BD4680BD00BF001002400008014045
:1016BC00000C014080B400AF72B600BFFEE7000022
:1016CC0080B485B000AF154B9B69144A43F00103FD
:1016DC009361124B9B6903F00103BB60BB680F4B1A
:1016EC00DB690E4A43F08053D3610C4BDB6903F08A
:1016FC0080537B607B680A4B5B68FB60FB6823F064
:10170C00E063FB60FB6843F08063FB60044AFB68AA
:10171C00536000BF1437BD4680BC704700100240B8
:10172C000000014080B584B000AF78607B681B6816
:10173C00B3F1804F13D10C4BDB690B4A43F001031F
:10174C00D361094BDB6903F00103FB60FB680022EA
:10175C0000211C2000F081FA1C2000F09AFA00BF36
:10176C001037BD4680BD00BF0010024080B400AFF2
:10177C00FEE780B400AFFEE780B400AFFEE780B4B4
:10178C0000AFFEE780B400AFFEE780B400AF00BF4F
:10179C00BD4680BC704780B400AF00BFBD4680BC66
:1017AC00704780B400AF00BFBD4680BC704780B5A9
:1017BC0000AF00F05FF900BF80BD000080B500AF46
:1017CC00024801F0BBF800BF80BD00BFC40100207F
:1017DC0080B400AF00BFBD4680BC704780B485B0FC
:1017EC0000AFF860B9607A60FB680133BA68013207
:1017FC0002FB03F34FF47A7202FB03F27B6892FB59
:10180C00F3F3034A136000BF1437BD4680BC704726
:10181C005401002080B582B000AF786039607B68DD
:10182C00052B10DC0A4B1B683A6892FBF3F1094854
:10183C007A6813465B0013449B0003441960786874
:10184C0000F00AF800E000BF0837BD4680BD00BFBD
:10185C00540100200C02002080B483B000AF7860EB
:10186C007B68052B1BDC10497A6813465B0013441C
:10187C009B000B4419680C487A6813465B001344B0
:10188C009B0003440433196007497A6813465B00D4
:10189C0013449B000B44083300221A6000E000BF85
:1018AC000C37BD4680BC70470C02002080B483B05E
:1018BC0000AF78607B68052B01DD00230DE0094942
:1018CC007A6813465B0013449B000B4408331B6877
:1018DC00012B0CBF01230023DBB218460C37BD468D
:1018EC0080BC70470C02002080B483B000AF002392
:1018FC007B6035E01F497A6813465B0013449B00FC
:10190C000B4404331B68002B27DD1A497A681346F5
:10191C005B0013449B000B4404331B68591E154891
:10192C007A6813465B0013449B000344043319602C
:10193C0010497A6813465B0013449B000B44043334
:10194C001B68002B09D10B497A6813465B001344C2
:10195C009B000B44083301221A607B6801337B60C7
:10196C007B68052BC6DD00BF00BF0C37BD4680BCB5
:10197C00704700BF0C02002080B582B000AF7860C9
:10198C007B681B68B3F1804F03D1FEF7C7FFFFF7ED
:10199C00ABFF00BF0837BD4680BD0000FFF718FF46
:1019AC000B480C490C4A002302E0D458C4500433B1
:1019BC00C4188C42F9D3094A094C002301E0136086
:1019CC000432A242FBD301F0F9FAFFF72DFD704768
:1019DC00000000206001002064300008600100203D
:1019EC0058020020FEE7000080B500AF084B1B68D2
:1019FC00074A43F010031360032000F023F90F2073
:101A0C0000F008F8FFF75CFE0023184680BD00BF0D
:101A1C000020024080B582B000AF7860124B1A688B
:101A2C00124B1B7819464FF47A73B3FBF1F3B2FBEC
:101A3C00F3F3184600F03BF90346002B01D00123C9
:101A4C000EE07B680F2B0AD8002279684FF0FF302C
:101A5C0000F003F9064A7B681360002300E00123C1
:101A6C0018460837BD4680BD500100205C0100209F
:101A7C005801002080B400AF054B1B781A46054B6B
:101A8C001B681344034A136000BFBD4680BC7047FB
:101A9C005C0100205402002080B400AF024B1B6894
:101AAC001846BD4680BC70475402002080B485B0F7
:101ABC0000AF78607B6803F00703FB600C4BDB68BE
:101ACC00BB60BA684FF6FF031340BB60FB681A0299
:101ADC00BB68134343F0BF6343F40033BB60044A59
:101AEC00BB68D36000BF1437BD4680BC704700BFD5
:101AFC0000ED00E080B400AF044BDB681B0A03F080
:101B0C0007031846BD4680BC704700BF00ED00E0DF
:101B1C0080B483B000AF0346FB7197F90730002BFC
:101B2C000BDBFB7903F01F02064997F907305B09C1
:101B3C00012000FA02F241F8232000BF0C37BD4609
:101B4C0080BC704700E100E080B483B000AF034676
:101B5C003960FB7197F90730002B0ADB3B68DAB26E
:101B6C000C4997F907301201D2B20B4483F80023C9
:101B7C000AE03B68DAB20849FB7903F00F03043B37
:101B8C001201D2B20B441A7600BF0C37BD4680BC92
:101B9C00704700BF00E100E000ED00E080B489B0C8
:101BAC0000AFF860B9607A60FB6803F00703FB6173
:101BBC00FB69C3F10703042B28BF0423BB61FB693A
:101BCC000433062B02D9FB69033B00E000237B6145
:101BDC004FF0FF32BB6902FA03F3DA43BB681A40D9
:101BEC007B699A404FF0FF317B6901FA03F3D943CB
:101BFC007B680B40134318462437BD4680BC7047A6
:101C0C0080B582B000AF78607B68013BB3F1807F18
:101C1C0001D301230FE00A4A7B68013B53600F217B
:101C2C004FF0FF30FFF790FF054B00229A60044BFA
:101C3C0007221A60002318460837BD4680BD00BF36
:101C4C0010E000E080B582B000AF78607868FFF7F4
:101C5C002DFF00BF0837BD4680BD80B586B000AFF4
:101C6C000346B9607A60FB7300237B61FFF742FF88
:101C7C0078617A68B9687869FFF790FF024697F93E
:101C8C000F3011461846FFF75FFF00BF1837BD46EF
:101C9C0080BD80B582B000AF0346FB7197F9073069
:101CAC001846FFF735FF00BF0837BD4680BD80B52D
:101CBC0082B000AF78607868FFF7A2FF0346184641
:101CCC000837BD4680BD000080B48BB000AF786093
:101CDC00396000237B6200233B6248E101227B6A6E
:101CEC0002FA03F3FB613B681B68FA691340BB61A2
:101CFC00BA69FB699A4240F037813B685B68A34A3A
:101D0C0093425ED0A14A934275D8A14A934258D0CF
:101D1C009F4A93426FD89F4A934252D09D4A934216
:101D2C0069D89D4A93424CD09B4A934263D89B4AB4
:101D3C00934246D0994A93425DD8122B2AD8122B43
:101D4C0059D801A252F823F0CF1D0008A91D000894
:101D5C00BB1D0008FD1D0008031E0008031E000823
:101D6C00031E0008031E0008031E0008031E0008C3
:101D7C00031E0008031E0008031E0008031E0008B3
:101D8C00031E0008031E0008031E0008B11D0008F6
:101D9C00C51D0008824A934213D02CE03B68DB68D7
:101DAC003B6229E03B68DB6804333B6224E03B6820
:101DBC00DB6808333B621FE03B68DB680C333B623B
:101DCC001AE03B689B68002B02D104233B6213E0B2
:101DDC003B689B68012B05D108233B627B68FA6941
:101DEC001A6109E008233B627B68FA695A6103E0D7
:101DFC0000233B6200E000BFBB69FF2B01D87B686E
:101E0C0001E07B6804337B61BB69FF2B02D87B6AE2
:101E1C009B0002E07B6A083B9B003B617B691A6874
:101E2C000F213B6901FA03F3DB431A40396A3B6922
:101E3C0001FA03F31A437B691A603B685B6803F091
:101E4C008053002B00F09080564B9B69554A43F011
:101E5C0001039361534B9B6903F00103BB60BB68A7
:101E6C00514A7B6A9B08023352F82330FB607B6A31
:101E7C0003F003039B000F2202FA03F3DB43FA681F
:101E8C001340FB607B68494A93420DD07B68484AFB
:101E9C00934207D07B68474A934201D1022304E066
:101EAC00032302E0012300E000237A6A02F003021C
:101EBC0092009340FA681343FB603B497B6A9B0892
:101ECC000233FA6841F823203B685B6803F4801303
:101EDC00002B06D0384B9A683749BB6913438B608B
:101EEC0006E0354B9A68BB69DB43334913408B6082
:101EFC003B685B6803F40013002B06D02E4BDA68AA
:101F0C002D49BB691343CB6006E02B4BDA68BB69E8
:101F1C00DB4329491340CB603B685B6803F4003317
:101F2C00002B06D0244B5A682349BB6913434B60E2
:101F3C0006E0214B5A68BB69DB431F4913404B60D9
:101F4C003B685B6803F48033002B06D01A4B1A688D
:101F5C001949BB6913430B6006E0174B1A68BB6940
:101F6C00DB43154913400B607B6A01337B623B6892
:101F7C001A687B6A22FA03F3002B7FF4AFAE00BF22
:101F8C0000BF2C37BD4680BC704700BF000032102C
:101F9C00000031100000221000002110000012106F
:101FAC000000111000100240000001400008014028
:101FBC00000C0140001001400004014080B485B0C9
:101FCC0000AF78600B467B807B689A687B881340F7
:101FDC00002B02D00123FB7301E00023FB73FB7B7E
:101FEC0018461437BD4680BC704780B483B000AF30
:101FFC0078600B467B8013467B707B78002B03D07C
:10200C007A887B681A6103E07B881A047B681A6102
:10201C0000BF0C37BD4680BC704780B485B000AFA4
:10202C0078600B467B807B68DB68FB607A88FB689A
:10203C0013401A04FB68D9437B880B401A437B6816
:10204C001A6100BF1437BD4680BC704780B586B09E
:10205C0000AF78607B68002B01D101236CE27B68B8
:10206C001B6803F00103002B00F08780924B5B6828
:10207C0003F00C03042B0CD08F4B5B6803F00C03A8
:10208C00082B12D18C4B5B6803F48033B3F5803F83
:10209C000BD1894B1B6803F40033002B6CD07B688D
:1020AC005B68002B68D1012346E27B685B68B3F563
:1020BC00803F06D1804B1B687F4A43F4803313600A
:1020CC002EE07B685B68002B0CD17B4B1B687A4A3B
:1020DC0023F480331360784B1B68774A23F48023F6
:1020EC0013601DE07B685B68B3F5A02F0CD1724BBD
:1020FC001B68714A43F4802313606F4B1B686E4A54
:10210C0043F4803313600BE06B4B1B686A4A23F477
:10211C0080331360684B1B68674A23F48023136079
:10212C007B685B68002B13D0FFF7B6FC386108E0C6
:10213C00FFF7B2FC02463B69D31A642B01D9032387
:10214C00FAE15D4B1B6803F40033002BF0D014E074
:10215C00FFF7A2FC386108E0FFF79EFC02463B69E2
:10216C00D31A642B01D90323E6E1534B1B6803F408
:10217C000033002BF0D100E000BF7B681B6803F03C
:10218C000203002B63D04C4B5B6803F00C03002B59
:10219C000BD0494B5B6803F00C03082B1CD1464B4E
:1021AC005B6803F48033002B16D1434B1B6803F0A0
:1021BC000203002B05D07B681B69012B01D0012386
:1021CC00BAE13D4B1B6823F0F8027B685B69DB00CE
:1021DC00394913430B603AE07B681B69002B20D014
:1021EC00364B01221A60FFF757FC386108E0FFF705
:1021FC0053FC02463B69D31A022B01D903239BE102
:10220C002D4B1B6803F00203002BF0D02A4B1B68EC
:10221C0023F0F8027B685B69DB00274913430B60F2
:10222C0015E0264B00221A60FFF736FC386108E0F7
:10223C00FFF732FC02463B69D31A022B01D9032368
:10224C007AE11D4B1B6803F00203002BF0D17B6875
:10225C001B6803F00803002B3AD07B689B69002BAA
:10226C0019D0174B01221A60FFF716FC386108E0F1
:10227C00FFF712FC02463B69D31A022B01D9032348
:10228C005AE10D4B5B6A03F00203002BF0D00120E6
:10229C0000F09AFA1CE00A4B00221A60FFF7FCFBD4
:1022AC0038610FE0FFF7F8FB02463B69D31A022BAB
:1022BC0008D9032340E100BF001002400000424255
:1022CC00800442429E4B5B6A03F00203002BE9D16F
:1022DC007B681B6803F00403002B00F0A68000232E
:1022EC00FB75974BDB6903F08053002B0DD1944B9E
:1022FC00DB69934A43F08053D361914BDB6903F064
:10230C008053BB60BB680123FB758E4B1B6803F4C9
:10231C008073002B18D18B4B1B688A4A43F4807353
:10232C001360FFF7B9FB386108E0FFF7B5FB024615
:10233C003B69D31A642B01D90323FDE0814B1B6845
:10234C0003F48073002BF0D07B68DB68012B06D183
:10235C007B4B1B6A7A4A43F0010313622DE07B68C6
:10236C00DB68002B0CD1764B1B6A754A23F00103FA
:10237C001362734B1B6A724A23F0040313621CE052
:10238C007B68DB68052B0CD16D4B1B6A6C4A43F0E8
:10239C00040313626A4B1B6A694A43F0010313621C
:1023AC000BE0674B1B6A664A23F001031362644B14
:1023BC001B6A634A23F0040313627B68DB68002BFF
:1023CC0015D0FFF769FB38610AE0FFF765FB0246A1
:1023DC003B69D31A41F28832934201D90323ABE013
:1023EC00574B1B6A03F00203002BEED014E0FFF7EF
:1023FC0053FB38610AE0FFF74FFB02463B69D31AE7
:10240C0041F28832934201D9032395E04C4B1B6A6D
:10241C0003F00203002BEED1FB7D012B05D1484BC1
:10242C00DB69474A23F08053D3617B68DB69002B5F
:10243C0000F08180424B5B6803F00C03082B61D0E9
:10244C007B68DB69022B46D13F4B00221A60FFF7F9
:10245C0023FB386108E0FFF71FFB02463B69D31AE8
:10246C00022B01D9032367E0354B1B6803F0007383
:10247C00002BF0D17B681B6AB3F5803F08D1304B41
:10248C005B6823F400327B689B682D4913434B60D7
:10249C002B4B5B6823F474127B68196A7B685B6A4C
:1024AC000B43274913434B60274B01221A60FFF75C
:1024BC00F3FA386108E0FFF7EFFA02463B69D31AEA
:1024CC00022B01D9032337E01D4B1B6803F000736B
:1024DC00002BF0D02FE01C4B00221A60FFF7DCFA27
:1024EC00386108E0FFF7D8FA02463B69D31A022B91
:1024FC0001D9032320E0124B1B6803F00073002B5F
:10250C00F0D118E07B68DB69012B01D1012313E0CA
:10251C000B4B5B68FB60FB6803F480327B681B6AC7
:10252C009A4206D1FB6803F470127B685B6A9A428C
:10253C0001D0012300E0002318461837BD4680BDAA
:10254C0000100240007000406000424280B584B030
:10255C0000AF786039607B68002B01D10123D0E09B
:10256C006A4B1B6803F007033A689A4210D9674B11
:10257C001B6823F0070265493B6813430B60634BF0
:10258C001B6803F007033A689A4201D00123B8E0B4
:10259C007B681B6803F00203002B20D07B681B6850
:1025AC0003F00403002B05D0594B5B68584A43F4E5
:1025BC00E06353607B681B6803F00803002B05D0B5
:1025CC00534B5B68524A43F460535360504B5B6807
:1025DC0023F0F0027B689B684D4913434B607B688A
:1025EC001B6803F00103002B40D07B685B68012B58
:1025FC0007D1474B1B6803F40033002B15D1012383
:10260C007FE07B685B68022B07D1414B1B6803F0B2
:10261C000073002B09D1012373E03D4B1B6803F0C1
:10262C000203002B01D101236BE0394B5B6823F0D3
:10263C0003027B685B68364913434B60FFF72CFA47
:10264C00F8600AE0FFF728FA0246FB68D31A41F259
:10265C008832934201D9032353E02D4B5B6803F07E
:10266C000C027B685B689B009A42EBD1274B1B6882
:10267C0003F007033A689A4210D2244B1B6823F0EC
:10268C00070222493B6813430B60204B1B6803F085
:10269C0007033A689A4201D0012332E07B681B6839
:1026AC0003F00403002B08D0194B5B6823F4E062A1
:1026BC007B68DB68164913434B607B681B6803F02F
:1026CC000803002B09D0124B5B6823F460527B6823
:1026DC001B69DB000E4913434B6000F021F80246E6
:1026EC000B4B5B681B0903F00F030A49CB5C22FA06
:1026FC0003F3094A1360094B1B681846FFF78AF964
:10270C00002318461037BD4680BD00BF0020024094
:10271C000010024038300008500100205801002001
:10272C0080B487B000AF0023FB600023BB600023A4
:10273C007B6100237B6000233B611E4B5B68FB606D
:10274C00FB6803F00C03042B02D0082B03D027E00A
:10275C00194B3B6127E0FB689B0C03F00F03174AF6
:10276C00D35C7B60FB6803F48033002B10D0114BDF
:10277C005B685B0C03F00103114AD35CBB607B68A4
:10278C000D4A02FB03F2BB68B2FBF3F37B6104E07E
:10279C007B680C4A02FB03F37B617B693B6102E0C3
:1027AC00054B3B6100BF3B6918461C37BD4680BCDE
:1027BC00704700BF0010024000127A004830000839
:1027CC005830000800093D0080B485B000AF786037
:1027DC000A4B1B680A4AA2FB03235B0A7A6802FBBA
:1027EC0003F3FB6000BFFB685A1EFA60002BF9D1A3
:1027FC0000BF00BF1437BD4680BC7047500100209D
:10280C00D34D621080B582B000AF78607B68002B2E
:10281C0001D1012341E07B6893F83D30DBB2002B02
:10282C0006D17B68002283F83C207868FEF77AFF9B
:10283C007B68022283F83D207B681A687B6804332E
:10284C001946104600F056FA7B68012283F84620A0
:10285C007B68012283F83E207B68012283F83F20AD
:10286C007B68012283F840207B68012283F8412099
:10287C007B68012283F842207B68012283F8432085
:10288C007B68012283F844207B68012283F8452071
:10289C007B68012283F83D20002318460837BD468B
:1028AC0080BD000080B485B000AF78607B6893F881
:1028BC003D30DBB2012B01D0012335E07B680222D5
:1028CC0083F83D207B681B68DA687B681B6842F0E4
:1028DC000102DA607B681B68164A934209D07B6858
:1028EC001B68B3F1804F04D07B681B68124A93427B
:1028FC0011D17B681B689B6803F00703FB60FB68C6
:10290C00062B10D07B681B681A687B681B6842F02A
:10291C0001021A6007E07B681B681A687B681B68F9
:10292C0042F001021A60002318461437BD4680BCE1
:10293C00704700BF002C01400004004080B584B0FB
:10294C0000AF78607B681B68DB68FB607B681B688A
:10295C001B69BB60BB6803F00203002B20D0FB6833
:10296C0003F00203002B1BD07B681B686FF0020284
:10297C001A617B6801221A777B681B689B6903F0DC
:10298C000303002B03D0786800F098F905E0786811
:10299C0000F08BF9786800F09AF97B6800221A77BE
:1029AC00BB6803F00403002B20D0FB6803F0040386
:1029BC00002B1BD07B681B686FF004021A617B68CC
:1029CC0002221A777B681B689B6903F44073002B07
:1029DC0003D0786800F072F905E0786800F065F9CA
:1029EC00786800F074F97B6800221A77BB6803F0F2
:1029FC000803002B20D0FB6803F00803002B1BD02E
:102A0C007B681B686FF008021A617B6804221A77D6
:102A1C007B681B68DB6903F00303002B03D0786829
:102A2C0000F04CF905E0786800F03FF9786800F0A8
:102A3C004EF97B6800221A77BB6803F01003002B59
:102A4C0020D0FB6803F01003002B1BD07B681B68A5
:102A5C006FF010021A617B6808221A777B681B687A
:102A6C00DB6903F44073002B03D0786800F026F97F
:102A7C0005E0786800F019F9786800F028F97B68AF
:102A8C0000221A77BB6803F00103002B0CD0FB6803
:102A9C0003F00103002B07D07B681B686FF0010269
:102AAC001A617868FEF768FFBB6803F08003002B9F
:102ABC000CD0FB6803F08003002B07D07B681B68ED
:102ACC006FF080021A61786800F06FFABB6803F04F
:102ADC004003002B0CD0FB6803F04003002B07D005
:102AEC007B681B686FF040021A61786800F0F8F898
:102AFC00BB6803F02003002B0CD0FB6803F0200311
:102B0C00002B07D07B681B686FF020021A61786875
:102B1C0000F042FA00BF1037BD4680BD80B584B0CE
:102B2C0000AF786039600023FB737B6893F83C300E
:102B3C00012B01D10223B4E07B68012283F83C20F5
:102B4C007B68022283F83D207B681B689B68BB6016
:102B5C00BB6823F07703BB60BB6823F47F43BB6087
:102B6C007B681B68BA689A603B681B68B3F5005FAA
:102B7C003ED0B3F5005F00F28780B3F5805F00F0C4
:102B8C008680B3F5805F7FD8702B1AD0702B7BD8E2
:102B9C00602B50D0602B77D8502B3CD0502B73D857
:102BAC00402B58D0402B6FD8302B64D0302B6BD8A7
:102BBC00202B60D0202B67D8002B5CD0102B5AD048
:102BCC0062E07B6818683B6899683B685A683B68A8
:102BDC00DB6800F06AF97B681B689B68BB60BB68AC
:102BEC0043F07703BB607B681B68BA689A604FE060
:102BFC007B6818683B6899683B685A683B68DB6877
:102C0C0000F053F97B681B689A687B681B6842F478
:102C1C0080429A603CE07B6818683B6859683B6866
:102C2C00DB681A4600F0CAF87B681B68502118460E
:102C3C0000F021F92CE07B6818683B6859683B6808
:102C4C00DB681A4600F0E8F87B681B6860211846C0
:102C5C0000F011F91CE07B6818683B6859683B6808
:102C6C00DB681A4600F0AAF87B681B6840211846FE
:102C7C0000F001F90CE07B681A683B681B68194688
:102C8C00104600F0F8F803E00123FB7300E000BFEE
:102C9C007B68012283F83D207B68002283F83C206E
:102CAC00FB7B18461037BD4680BD80B483B000AFA7
:102CBC00786000BF0C37BD4680BC704780B483B0D1
:102CCC0000AF786000BF0C37BD4680BC704780B445
:102CDC0083B000AF786000BF0C37BD4680BC704736
:102CEC0080B483B000AF786000BF0C37BD4680BCA9
:102CFC007047000080B485B000AF786039607B68A5
:102D0C001B68FB607B682B4A934207D07B68B3F14E
:102D1C00804F03D07B68284A934208D1FB6823F08C
:102D2C007003FB603B685B68FA681343FB607B686D
:102D3C00204A934207D07B68B3F1804F03D07B6865
:102D4C001D4A934208D1FB6823F44073FB603B6837
:102D5C00DB68FA681343FB60FB6823F080023B6876
:102D6C005B691343FB607B68FA681A603B689A687E
:102D7C007B68DA623B681A687B689A627B680D4AEA
:102D8C00934203D13B681A697B681A637B68012202
:102D9C005A617B681B6903F00103002B05D07B682B
:102DAC001B6923F001027B681A6100BF1437BD4612
:102DBC0080BC7047002C01400004004080B487B0F8
:102DCC0000AFF860B9607A60FB681B6A7B61FB68D6
:102DDC001B6A23F00102FB681A62FB689B693B616A
:102DEC003B6923F0F0033B617B681B013A69134399
:102DFC003B617B6923F00A037B617A69BB681343EF
:102E0C007B61FB683A699A61FB687A691A6200BF58
:102E1C001C37BD4680BC704780B487B000AFF860EB
:102E2C00B9607A60FB681B6A7B61FB681B6A23F0E4
:102E3C001002FB681A62FB689B693B613B6923F4D7
:102E4C0070433B617B681B033A6913433B617B69AD
:102E5C0023F0A0037B61BB681B017A6913437B6180
:102E6C00FB683A699A61FB687A691A6200BF1C3781
:102E7C00BD4680BC704780B485B000AF78603960C7
:102E8C007B689B68FB60FB6823F07003FB603A680F
:102E9C00FB68134343F00703FB607B68FA689A6096
:102EAC0000BF1437BD4680BC704780B487B000AFFC
:102EBC00F860B9607A603B60FB689B687B617B69FA
:102ECC0023F47F437B613B681A027B681A43BB681F
:102EDC0013437A6913437B61FB687A699A6000BF7C
:102EEC001C37BD4680BC704780B485B000AF78609D
:102EFC0039607B6893F83C30012B01D1022341E00F
:102F0C007B68012283F83C207B68022283F83D20F9
:102F1C007B681B685B68FB607B681B689B68BB609D
:102F2C00FB6823F07003FB603B681B68FA68134373
:102F3C00FB607B681B68FA685A607B681B68144AE4
:102F4C00934209D07B681B68B3F1804F04D07B6837
:102F5C001B68104A93420CD1BB6823F08003BB6002
:102F6C003B685B68BA681343BB607B681B68BA68D4
:102F7C009A607B68012283F83D207B68002283F8ED
:102F8C003C20002318461437BD4680BC704700BF58
:102F9C00002C01400004004080B483B000AF786086
:102FAC0000BF0C37BD4680BC704780B483B000AF07
:102FBC00786000BF0C37BD4680BC704770B50026EA
:102FCC000C4D0D4C641BA410A64209D100F022F844
:102FDC0000260A4D0A4C641BA410A64205D170BDF4
:102FEC0055F8043B98470136EEE755F8043B9847F3
:102FFC000136F2E75C3000085C3000085C300008F9
:10300C006030000803460244934200D1704703F835
:10301C00011BF9E7F8B500BFF8BC08BC9E46704729
:0C302C00F8B500BFF8BC08BC9E46704719
:103038000000000000000000010203040607080960
:1030480002030405060708090A0B0C0D0E0F1010E1
:043058000102000071
:04305C003101000836
:043060000D01000856
:10306400050000000500000002000000030000004D
:103074000500000002000000030000000000000042
:10308400000000000000000000000000000000003C
:10309400000000000100000001000000000000002A
:1030A4000000000001000000010000000100000019
:1030B400010000000000000000000000010000000A
:1030C40000000000000000000100000000000000FB
:1030D40000000000000000000000000000000000EC
:1030E40001000000010000000000000001000000D9
:1030F40000000000000000000100000001000000CA
:1031040000000000000000000000000001000000BA
:1031140000000000000000000100000000000000AA
:10312400000000000000000001000000000000009A
:10313400000000000000000000000000000000008B
:10314400000000000000000000000000010000007A
:103154000100000001000000010000000000000068
:10316400000000000000000000000000000000005B
:10317400000000000000000000000000000000004B
:10318400000000000000000001000000000000003A
:103194000000000002000000050000000200000022
:1031A400030000000500000002000000030000000E
:1031B40000127A000A000000100000000100000064
:04000005080019A92D
:00000001FF
